:100000000C9461000C94E60A0C94E60A0C94E60A3F
:100010000C94E60A0C944F040C9456060C94E60AD1
:100020000C94BD030C94E60A0C94E60A0C94E60AC0
:100030000C94E60A0C94E60A0C941E050C946005D8
:100040000C94E60A0C94E60A0C94E60A0C94E60A70
:100050000C94DD070C94E60A0C94E60A0C94E60A6C
:100060000C941C020C94E60A0C94E60A0C94E60A22
:100070000C94E60A0C94E60A0C9496040C94A205DF
:100080000C9434070C945F070C941D060C94DA044E
:100090000C94E60A0C94E60A0C94B3060C94DE0663
:1000A0000C94E4050C94E60A0C94E60A0C94E60A17
:1000B00040005608805608562000161A5620569BB7
:1000C000800011241FBECFEFCDBFDFE7DEBFE0EB26
:1000D000F0E040E019C0B791A791379127910791BF
:1000E00007FD0EC097918791EF01F92FE82F0BBF05
:1000F00007900D92A217B307D9F7FE011BBE04C0EB
:100100001D92A217B307E1F7E13CF40721F70E9423
:0A0110003B090C94000AF894FFCF9D
:10011A00CF93DF9380E094E0FC011482C0E4D4E042
:10012A0023E02C83A0E6B4E014961C92149740EACC
:10013A0054E0FA01248330E4FC0130833DE0388343
:10014A003EEF3C9331E3FA013083FC01108A118AB5
:10015A00128A138A148A158A168A178A188A198A99
:10016A001A8A1B8A1C8A1D8A1E8A1F8A50961C920A
:10017A00509751961C92519752961C9252975396A9
:10018A001C92539754961C92549755961C925597C5
:10019A0056961C92569757961C92FA01108A118A03
:1001AA00128A138A148A158A168A178AE0EEF5E0EB
:1001BA001186118210822483168217821086158274
:1001CA00128212868AEE9AE00E94570A8BEE9AE011
:1001DA000E945C0A8CEE9AE00E94610A8DEE9AE017
:1001EA000E94660A8EEE9AE00E946B0A8FEE9AE0EF
:1001FA000E94700A80EF9AE00E94750A81EF9AE0E5
:10020A000E947A0A82EF9AE00E947F0A83EF9AE0BC
:10021A000E94840A84EF9AE00E94890A85EF9AE094
:10022A000E948E0A86EF9AE00E94930A87EF9AE06C
:10023A000E94980A88EF9AE00E949D0A89EF9AE044
:10024A000E94A20A8AEF9AE00E94A70A8BEF9AE01C
:10025A000E94AC0A8CEF9AE00E94B10A8DEF9AE0F4
:0A026A000E94B60ADF91CF910895BB
:10027400E0917456F0917556EE0FFF1FE85FFE4A49
:10028400108211828091410882FF12C0E09174565D
:10029400F0917556EE0FFF1FE85FFE4A8081826081
:1002A4008083E0916C56F0916D56309709F0099572
:1002B4008091410881FF0CC0EEE6F6E58081816003
:1002C4008083E0916856F0916956309709F009955A
:1002D4008091410886FF12C0E0917456F0917556E2
:1002E400EE0FFF1FE85FFE4A808184608083E09107
:1002F4006A56F0916B56309709F009954091400881
:100304008091745690917556019699272091725652
:100314003091735682179307A1F0E0917456F091CF
:100324007556E85FFC4A40838093745690937556E3
:100334008091705690917156019680937056909367
:100344007156E0916456F0916556309709F009951D
:0203540008950A
:10035600E0918C56F0918D56EE0FFF1FE85FFE4B35
:10036600108211828091210882FF12C0E0918C5682
:10037600F0918D56EE0FFF1FE85FFE4B8081826085
:100386008083E0918456F0918556309709F009955F
:100396008091210881FF0CC0E6E8F6E58081816046
:1003A6008083E0918056F0918156309709F0099547
:1003B6008091210886FF12C0E0918C56F0918D56EF
:1003C600EE0FFF1FE85FFE4B808184608083E09123
:1003D6008256F0918356309709F00995409120088E
:1003E60080918C5690918D560196937020918A56E5
:1003F60030918B5682179307A1F0E0918C56F091BD
:100406008D56E85FF64B408380938C5690938D56BD
:10041600809188569091895601968093885690933C
:100426008956E0917C56F0917D56309709F00995F2
:02043600089527
:100438001F920F920FB60F9211240BB60F922F93A3
:100448003F934F935F936F937F938F939F93AF9354
:10045800BF93EF93FF93799B05C0E0913A56F091D3
:100468003B5609957A9B05C0E0913856F09139566C
:1004780009957B9B05C0E0913656F0913756099552
:100488007C9B05C0E0913456F091355609957D9BCB
:1004980005C0E0913256F091335609957E9B05C010
:1004A800E0913056F091315609957F9B05C0E09157
:1004B8002E56F0912F5609958FEF8FB9FF91EF9136
:1004C800BF91AF919F918F917F916F915F914F9164
:1004D8003F912F910F900BBE0F900FBE0F901F9062
:0204E800189565
:1004EA00CF9380919A5681111EC0809110409091AD
:1004FA00114092FF1AC064E080E094E00E9405086F
:10050A00811115C04CEC64E080E094E00E9455092A
:10051A0044E464E080E094E00E94550981E080931D
:10052A009A56C1E005C0C0E003C0C0E001C0C0E007
:10053A008091995681111DC080911040909111406F
:10054A00892BB9F068E080E094E00E9405088111E7
:10055A0010C04CEC68E080E094E00E94550944E445
:10056A0068E080E094E00E94550981E08093995602
:10057A00C1E0CC2339F0E0E1FBE0128613868581E5
:08058A0081608583CF91089583
:10059200E0E4F9E02481838180688383809124569A
:1005A20090912556892B49F180912656813829F060
:1005B200E0912256F09123562083E0E2F6E5808115
:1005C20091810196808391838281938101968283B6
:1005D20093838681882331F0E0912056F091215651
:1005E200208101C020E0E0E2F6E584819581019757
:1005F20084839583209344090895809126568138F7
:1006020049F080912756823429F4E0912256F091E4
:100612002356208381E880932756E0E4F9E0828123
:100622008F778283E0912856F0912956309709F00E
:040632000995089589
:10063600CF93DF938AE391E0809302409093034047
:1006460084EB97E08093004090930140C0E4D8E0AB
:100656008AE09AE18887998780ED8D8380EC8E8386
:1006660083E08F831B861C861E861D8684E09BE0A6
:100676000E94140A85E09BE00E941B0A86E09BE02C
:100686000E94220A10926E5610926F5610927A5657
:1006960010927B56109278561092795680E091E02F
:1006A600809376569093775681E080939456109275
:1006B6007456109275561092725610927356109286
:1006C6007056109271568D8180688D83DF91CF911F
:0206D600089585
:1006D800CF93DF938BEA91E0809306409093074095
:1006E8008AE897E08093044090930540C0E2D8E000
:1006F8008AE09AE18887998780ED8D8380EC8E83E4
:1007080083E08F831B861C861E861D8687E09BE000
:100718000E94290A88E09BE00E94300A89E09BE059
:100728000E94370A10928656109287561092925657
:1007380010929356109290561092915680E094E041
:1007480080938E5690938F5681E0809395561092A1
:100758008C5610928D5610928A5610928B56109283
:100768008856109289568D8180688D83DF91CF914C
:020778000895E2
:10077A001F920F920FB60F9211240BB60F922F935E
:10078A003F934F935F936F937F938F939F93AF930F
:10079A00BF93EF93FF931A9B05C0E0914856F091DF
:1007AA00495609951B9B05C0E0914656F09147565C
:1007BA0009951D9B05C0E0914456F091455609954F
:1007CA001F9B05C0E0914256F091435609951E9B26
:1007DA0005C0E0914056F091415609958FEF83B9D3
:1007EA00FF91EF91BF91AF919F918F917F916F91FF
:1007FA005F914F913F912F910F900BBE0F900FBEBB
:06080A000F901F901895ED
:1008100043E068ED80E690E00E94BB0A40E068EDAE
:1008200081E690E00E94BB0A40E068ED88E790E036
:100830000E94BB0A4CE168ED88E690E00E94BB0A8A
:1008400040E068ED89E690E00E94BB0A40E468ED74
:1008500080E790E00E94BB0A40E068ED8CE790E002
:100860000E94BB0A44E068ED82E690E00E94BB0A69
:1008700040E068ED83E690E00E94BB0A40E068ED4E
:1008800084E690E00E94BB0A45E168ED80E890E0D4
:0E0890000E94BB0A8091650084FFFCCF089592
:10089E001F920F920FB60F9211240BB60F922F9339
:1008AE003F934F935F936F937F938F939F93AF93EA
:1008BE00BF93EF93FF938091420180FF0BC0809115
:1008CE00430180FF07C0E0915A56F0915B56309776
:1008DE0009F009958091420181FF0BC0809143017F
:1008EE0081FF07C0E0915856F0915956309709F0A4
:1008FE00099583E080934301FF91EF91BF91AF91F2
:10090E009F918F917F916F915F914F913F912F9119
:0E091E000F900BBE0F900FBE0F901F901895FC
:10092C001F920F920FB60F9211240BB60F922F93AA
:10093C003F934F935F936F937F938F939F93AF935B
:10094C00BF93EF93FF93599B05C0E0915056F091E4
:10095C0051560995589B05C0E0914E56F0914F5653
:10096C0009955A9B05C0E0913E56F0913F5609956A
:10097C005B9B05C0E0913C56F0913D5609958FEF7D
:10098C008BB9FF91EF91BF91AF919F918F917F9117
:10099C006F915F914F913F912F910F900BBE0F90E4
:0809AC000FBE0F901F9018957B
:1009B4001F920F920FB60F9211240BB60F922F9322
:1009C4003F934F935F936F937F938F939F93AF93D3
:1009D400BF93EF93FF93B99B05C0E0914C56F09100
:1009E4004D560995B89B05C0E0914A56F0914B5677
:1009F4000995BC9B05C0E0912C56F0912D560995A4
:100A0400BD9B05C0E0912A56F0912B5609958FEFB6
:100A140087BBFF91EF91BF91AF919F918F917F9190
:100A24006F915F914F913F912F910F900BBE0F905B
:080A34000FBE0F901F901895F2
:100A3C001F920F920FB60F9211240BB60F922F9399
:100A4C003F934F935F936F937F938F939F93AF934A
:100A5C00BF93EF93FF938091060B80FF0AC0E09148
:100A6C005256F0915356309709F0099581E08093D6
:100A7C00060B8091060B81FF0AC0E0915456F09151
:100A8C005556309709F0099582E08093060BFF913B
:100A9C00EF91BF91AF919F918F917F916F915F91EA
:100AAC004F913F912F910F900BBE0F900FBE0F9057
:040ABC001F901895DA
:100AC0001F920F920FB60F9211240BB60F922F9315
:100AD0003F934F935F936F937F938F939F93AF93C6
:100AE000BF93EF93FF938091160B80FF0AC0E091B4
:100AF0005C56F0915D56309709F0099581E080933E
:100B0000160B8091160B81FF0AC0E0915E56F091A2
:100B10005F56309709F0099582E08093160BFF919C
:100B2000EF91BF91AF919F918F917F916F915F9165
:100B30004F913F912F910F900BBE0F900FBE0F90D2
:040B40001F90189555
:100B44001F920F920FB60F9211240BB60F922F9390
:100B54003F934F935F936F937F938F939F93AF9341
:100B6400BF93EF93FF938091260B80FF0AC0E0911F
:100B74006056F0916156309709F0099581E08093B1
:100B8400260B8091260B81FF0AC0E0916256F091FA
:100B94006356309709F0099582E08093260BFF9104
:100BA400EF91BF91AF919F918F917F916F915F91E1
:100BB4004F913F912F910F900BBE0F900FBE0F904E
:040BC4001F901895D1
:100BC8001F920F920FB60F9211240BB60F922F930C
:100BD8003F934F935F936F937F938F939F93AF93BD
:100BE800BF93EF93FF938091440886FB882780F991
:100BF80080939456E0916656F0916756309709F0C5
:100C08000995E0E4F8E0848180648483FF91EF91A2
:100C1800BF91AF919F918F917F916F915F914F910C
:100C28003F912F910F900BBE0F900FBE0F901F900A
:020C380018950D
:100C3A001F920F920FB60F9211240BB60F922F9399
:100C4A003F934F935F936F937F938F939F93AF934A
:100C5A00BF93EF93FF938091240886FB882780F93E
:100C6A0080939556E0917E56F0917F56309709F021
:100C7A000995E0E2F8E0848180648483FF91EF9132
:100C8A00BF91AF919F918F917F916F915F914F919A
:100C9A003F912F910F900BBE0F900FBE0F901F9098
:020CAA0018959B
:100CAC001F920F920FB60F9211240BB60F922F9327
:100CBC003F934F935F936F937F938F939F93AF93D8
:100CCC00BF93EF93FF93E0915656F09157563097A0
:100CDC0009F0099581E080935301FF91EF91BF9149
:100CEC00AF919F918F917F916F915F914F913F91B8
:100CFC002F910F900BBE0F900FBE0F901F90189559
:100D0C00E0918A56F0918B56E85FF64B80812091EA
:100D1C008A5630918B562F5F3F4F337020938A56F3
:100D2C0030938B56E0E2F8E095819F779583209184
:100D3C00885630918956232B51F02091885630914A
:100D4C008956215031092093885630938956E0E218
:0A0D5C00F8E09581906895830895F2
:100D66001F920F920FB60F9211240BB60F922F936C
:100D76003F934F935F936F937F938F939F93AF931D
:100D8600BF93EF93FF93E0910240F09103400995E2
:100D9600FF91EF91BF91AF919F918F917F916F914D
:100DA6005F914F913F912F910F900BBE0F900FBE09
:060DB6000F901F9018953C
:100DBC001F920F920FB60F9211240BB60F922F9316
:100DCC003F934F935F936F937F938F939F93AF93C7
:100DDC00BF93EF93FF93E0910040F0910140099590
:100DEC00FF91EF91BF91AF919F918F917F916F91F7
:100DFC005F914F913F912F910F900BBE0F900FBEB3
:060E0C000F901F901895E5
:100E120020918E5630918F56232BF9F0E091925605
:100E2200F0919356E85FF24B8083809192569091B5
:100E32009356019693708093925690939356E0E264
:100E4200F8E085818F7D858380918E5690918F56B3
:100E5200019780938E5690938F56E0E2F8E0858159
:060E620080628583089503
:100E68001F920F920FB60F9211240BB60F922F9369
:100E78003F934F935F936F937F938F939F93AF931A
:100E8800BF93EF93FF93E0910640F09107400995D7
:100E9800FF91EF91BF91AF919F918F917F916F914A
:100EA8005F914F913F912F910F900BBE0F900FBE06
:060EB8000F901F90189539
:100EBE001F920F920FB60F9211240BB60F922F9313
:100ECE003F934F935F936F937F938F939F93AF93C4
:100EDE00BF93EF93FF93E0910440F0910540099585
:100EEE00FF91EF91BF91AF919F918F917F916F91F4
:100EFE005F914F913F912F910F900BBE0F900FBEB0
:060F0E000F901F901895E2
:100F140080918E5690918F5681159440E8F4E0911B
:100F24009056F0919156E85FF24B808180932208AD
:100F3400809190569091915601969370809390561B
:100F44009093915680918E5690918F5601968093EE
:100F54008E5690938F560895E0E2F8E085818F7D58
:040F640085830895E4
:100F6800809176569091775691111DC0E0917856F0
:100F7800F0917956E85FFB4A80818093420880911E
:100F88007856909179560196992780937856909340
:100F98007956809176569091775601968093765639
:100FA800909377560895E0E4F8E085818F7D8583F6
:020FB80008959A
:100FBA001F920F920FB60F9211240BB60F922F9316
:100FCA003F934F935F936F937F938F939F93AF93C7
:100FDA00BF93EF93FF930E94C902FF91EF91BF91D4
:100FEA00AF919F918F917F916F915F914F913F91B7
:100FFA002F910F900BBE0F900FBE0F901F90189558
:10100A00FC01618366838FE797E00197F1F700C0DF
:10101A000000628387E191E00197F1F700C00000C8
:10102A008085862341F087E696E00197F1F700C0B4
:10103A00000081E0089587E696E00197F1F700C085
:10104A0000008085682311F080E0089582E0089509
:10105A00809141018111FCCFE0E4F1E08FEF9FE73D
:10106A0084879587108611868FEF9FEF82879387F3
:10107A0017821282158281E0808380915101811149
:10108A00FCCFE0E4F1E0128A158A81E7808B80E0E8
:02109A000895B7
:10109C00CF93DF9380919656811118C084E0809392
:1010AC006504C091975681E08C0F80939756D0E0E1
:1010BC000E948606C85FDA4A8883E0E0FBE012866D
:1010CC00138681E08683858181608583DF91CF9152
:0210DC00089575
:1010DE00CF93DF93C0E0DBE088818E7F8883198217
:1010EE0018861C8280E89BEB8C879D871A861B8650
:1010FE001E828EEF9AE00E94C00A8FEF9AE00E9445
:0E110E00C50A1D8283E08883DF91CF9108958A
:10111C00CF93DF93C0E1DBE088818E7F88831982D7
:10112C0018861C8280E593EC8C879D871A861B861B
:10113C001E8280E09BE00E94CA0A81E09BE00E9434
:0E114C00CF0A1D8285E08883DF91CF91089540
:10115A00CF93DF93C0E2DBE088818E7F8883198298
:10116A0018861C828AE698E18C879D871A861B86D8
:10117A001E8282E09BE00E94D40A83E09BE00E94E8
:0E118A00D90A1D8285E08883DF91CF910895F8
:10119800E0E0FAE010A611A612A613A614A615A65A
:1011A80010A211A211821282138214821582168251
:1011B800178216861186128613868DE390E086A321
:0A11C80097A317868DE08083089539
:1011D200FC0161836683442359F080E28A95F1F72A
:1011E20065838FEF90E00197F1F700C0000008954A
:1011F2008FEE90E00197F1F700C00000658395E360
:081202009A95F1F70000089530
:10120A00E8E0F0E484E690E08083918382E090E075
:10121A008283938383E090E0848395838683978394
:10122A0080E39CE0808791870E94EA090E94450A30
:06123A000E94AD090895B9
:101240000F931F93CF93DF93EC010E94DE0A0BC034
:101250000E940B0A8823E1F38E010F5F1F4F8881E4
:101260000E940907E80188818111F2CFDF91CF91B7
:061270001F910F9108958B
:101276000E946F0978940E9405090E94E20A80E4A0
:10128600809365040E94E20A88E096E50E942009A0
:101296002FEF83ED90E3215080409040E1F700C0AE
:0412A6000000F0CF85
:1012AA00EF92FF921F93CF93DF937C01162FD42FD7
:1012BA00C0E008C04D2F4170612FC7010E94E908A4
:1012CA00D695CF5FC830B0F3DF91CF911F91FF90D1
:0412DA00EF900895F4
:1012DE000E9408040E948D000E94BE090E94CC0844
:1012EE000E946F080E948E080E94AD080E942D0871
:0E12FE000E946C030E941B030E94DD090895EC
:10130C0080919A56813019F482E080939A5680919C
:10131C009956813019F482E080939956E0E1FBE014
:0C132C001286138685818E7F85830895CC
:101338008091985681110BC091E090939856E0E205
:10134800FBE012861386958191609583089583E06A
:021358000895F6
:10135A0086E899E00E94CF0AE0E0F4E084E0818325
:10136A00858388E0818385830E944C0A0E947502E6
:02137A000895D4
:10137C00E0E4F9E080818E7F808384E3808384ECD9
:10138C00818380E090E00E94520A109227560895C3
:10139C0088E08093650481E08093965684E0809386
:0E13AC006604E0E0FBE085818E7F8583089576
:1013BA0040E068ED80E191E00E94BB0AE0E1F1E0E3
:0A13CA0012821382789480E00895E7
:1013D4008EE498E00E943E0A8EEC99E00E94C50AD1
:0613E4000E94E20A0895D8
:1013EA0082E080939856E0E2FBE0128613868581BC
:0613FA008E7F858308953B
:10140000EC010E940B0B0E940A0BCE010E940C0BF8
:06141000CE010E94E80A73
:1014160020918E5630918F5681E0232B09F480E07F
:02142600089527
:0E142800009721F080936C5690936D560895B6
:0E143600009721F080936A5690936B560895AC
:0E144400009721F080936856909369560895A2
:0E145200009721F0809384569093855608955C
:0E146000009721F08093825690938356089552
:0E146E00009721F08093805690938156089548
:0E147C00009721F080937C5690937D56089542
:0E148A0085EF99E00E94D90A0E949C090895FE
:0C149800E0E1FBE080818160808308952A
:0A14A400809328569093295608956E
:0A14AE008093505690935156089514
:0A14B80080934E5690934F5608950E
:0A14C20080934C5690934D56089508
:0A14CC0080934A5690934B56089502
:0A14D60080934856909349560895FC
:0A14E00080934656909347560895F6
:0A14EA0080934456909345560895F0
:0A14F40080934256909343560895EA
:0A14FE0080934056909341560895E4
:0A15080080933E5690933F560895DD
:0A15120080933C5690933D560895D7
:0A151C0080933A5690933B560895D1
:0A15260080933856909339560895CB
:0A15300080933656909337560895C5
:0A153A0080933456909335560895BF
:0A15440080933256909333560895B9
:0A154E0080933056909331560895B3
:0A15580080932E5690932F560895AD
:0A15620080932C5690932D560895A7
:0A156C0080932A5690932B560895A1
:0A1576001BBEFC0164BF4083089512
:0A1580008093545690935556089539
:0A158A008093525690935356089533
:0A15940080935E5690935F56089511
:0A159E0080935C5690935D5608950B
:0A15A80080936256909363560895F5
:0A15B20080936056909361560895EF
:0815BC0088E0809345040895C6
:0815C40088E0809346040895BD
:0415CC000C9400007B
:0415D0000E948B00EA
:0215D400089578
:0215D600089576
:0215D800089574
:0215DA00089572
:0215DC00089570
:0215DE0008956E
:0215E00008956C
:0215E20008956A
:0215E400089568
:0215E600089566
:0215E800089564
:0215EA00089562
:0215EC00089560
:0215EE0008955E
:0215F00008955C
:0215F20008955A
:0215F400089558
:0215F600089556
:0215F800089554
:0215FA00089552
:0215FC00089550
:0215FE0008954E
:0216000008954B
:02160200089549
:02160400089547
:02160600089545
:02160800089543
:02160A00089541
:02160C0008953F
:02160E0008953D
:0216100008953B
:02161200089539
:02161400089537
:02161600089535
:02161800089533
:10161A0048656C6C6F206D79206E616D6520697309
:08162A0020527568616E0A0090
:02000004008278
:090000000000000000C00800002F
:00000001FF
