:100000000C9481000C945C1D0C945C1D0C945C1D84
:100010000C945C1D0C94D5110C9444160C945C1D2E
:100020000C94F8100C945C1D0C945C1D0C945C1DDD
:100030000C945C1D0C945C1D0C94BB130C943F142D
:100040000C945C1D0C945C1D0C945C1D0C945C1D4C
:100050000C94CE170C945C1D0C945C1D0C945C1DD0
:100060000C94520F0C945C1D0C945C1D0C945C1D44
:100070000C945C1D0C945C1D0C94EF120C94FD13FD
:100080000C94FC160C9427170C94FC140C9433134A
:100090000C945C1D0C945C1D0C945C1D0C945C1DFC
:1000A0000C945C1D0C945C1D0C945C1D0C945C1DEC
:1000B000020F0C0F160F200F2A0F340F3E0F480FA0
:1000C0004000451F80451F4545003B064545454DC1
:1000D00080454D455A003B2C455A45C68045C6458E
:1000E000C8003B3945C845CF8045CF45D00001F316
:1000F00045D045D28045D245D5003B3B45D545D777
:100100008000809101108F7C8060806898ED94BFA2
:100110008093011011241FBECFEFCDBFDFE7DEBFFC
:10012000E0ECF0E041E019C0B791A7913791279139
:10013000079107FD0EC097918791EF01F92FE82FE6
:100140000BBF07900D92A217B307D9F7FE011BBE94
:1001500004C01D92A217B307E1F7E130F40721F7BD
:0C0160000E94301B0C94E21BF894FFCFAF
:10016C000A76616C436865636B6572202530325882
:10017C002025303258202530325820253032582056
:10018C002530325820253032582025303258202541
:10019C003032580A0025303258202530325820256C
:1001AC003032582025303258202530325820253016
:1001BC003258202530325820253032580A0025304C
:0A01CC0032582025303258200A0076
:1001D6006B74797065202564200A006473312025CC
:0D01E60064200A00647332202564200A00A2
:0101F30014F7
:1001F400AEE0B0E0E0E0F1E00C94791A4C016B0160
:1002040019821A828FEF9FEF8B839C831D821E823B
:100214004F83588729873A87A12CB12CD6016D903A
:100224007C90F301EA0DFB1D808181110FC0D60182
:10023400ED93FC938081853209F0D3C13F01BFEF78
:100244006B1A7B0AF6016082718219C0853279F3D8
:10025400B401082E000C990B0E94AC104FEFA41AA5
:10026400B40ADCCF8C32ACF08D32F9F489819A81F6
:10027400816089839A833196D601ED93FC93D601EC
:10028400ED91FC9180818B3269F789819A81846038
:10029400F0CF803221F489819A818860EACF833259
:1002A40051F489819A818061E4CF803321F489817A
:1002B4009A818260DECFB701C6010E94A3168D83A6
:1002C4009E8397FF0BC029813A81B1E02B272983B4
:1002D4003A839195819591098D839E8389819A8131
:1002E40080FF03C08D7F89839A83D601ED91FC91B1
:1002F400119780818E3249F43196ED93FC93B701C6
:10030400C6010E94A3168B839C83C6010E943A19DE
:10031400582ED601ED91FC918081082E000C990B8A
:100324000E94101C893609F443C084F4833609F40E
:1003340002C134F4853209F427C18136E1F030C1B9
:100344008436B1F188360CF4D9C02AC1803709F457
:100354009AC03CF48E3609F4BCC08F3609F461C0EF
:100364001FC1853709F440C0883709F476C0833744
:1003740009F016C1F3C0652D70E0A701CE010B96FC
:100384000E940000892B09F426C1D601ED91FC914D
:100394001197CF0101968D939C932081AE01455F07
:1003A4005F4FBE016F5F7F4FC4010E94000010C108
:1003B400652D70E0970141E050E0CE010B960E945C
:1003C400600D892B09F407C1F601808191810196A2
:1003D40080839183AE01455F5F4FBE016F5F7F4FA6
:1003E400C4010E94150CF4C0652D70E0970140E033
:1003F40050E0CE010B960E94600D892B09F4EBC0EE
:10040400D6018D919C91119701968D939C93AE0189
:10041400455F5F4FBE016F5F7F4FC4010E9463124F
:10042400D7C0652D70E0970140E050E0CE010B96F7
:100434000E94600D892B09F4CEC0F6018081918160
:10044400019680839183AE01455F5F4FBE016F5F6C
:100454007F4FC4010E94AB0FBBC0652D70E09701B4
:1004640040E050E0CE010B960E94600D892B09F408
:10047400B2C0D601ED91FC911197CF0101968D93F5
:100484009C9320811CC0970140E050E060EF70E035
:10049400CE010B960E94600D892B09F49CC0F601D5
:1004A400808191810196808391838B859C85892BA2
:1004B40029F420E030E044E555E484C028E7AE01A7
:1004C400455F5F4FBE016F5F7F4FC4010E944404CC
:1004D4007FC0A501400F511F652D70E09701CE012B
:1004E4000B960E940000892B09F475C0D6018D91EA
:1004F4009C91119701968D939C9373C0652D70E028
:10050400A701CE010B960E940000892B09F463C059
:10051400D601ED91FC911197CF0101968D939C9397
:100524002081AE01455F5F4FBE016F5F7F4FC40105
:100534000E9400004DC0B0E85B124DC0F6018081FE
:100544009181019680839183D701ED91FC9111975C
:10055400CF0102968D939C93808120C0B0E85B12FA
:100564003AC0F60180819181019680839183D701FD
:10057400ED91FC911197CF0102968D939C9340814C
:10058400518120E030E01EC0B0E85B1224C0F601C7
:10059400208131812F5F3F4F208331838B870DC0B2
:1005A40085E28B87D6016D927C9219821A821D8214
:1005B4001E828FEF9FEF8B839C8321E030E0AE019E
:1005C400455F5F4FBE016F5F7F4FC4010E945217AA
:1005D4008A0D9B1D07C0F60180819181019680835D
:0C05E4009183C5012E96EFE00C94C21A22
:1005F0004F925F926F927F928F929F92AF92BF9233
:10060000CF92DF92EF92FF92CF93DF93CDB7DEB719
:100610006097CDBFDEBF2B013C016B017C0120E860
:10062000E21AF108C114D10420E8E2062FE7F2062D
:10063000A0F16B017C01CC0CDD1CEE1CFF1CCD2855
:10064000CE28CF2859F49B01AC010E944C1D9B0180
:10065000AC0160E070E080E89FEB0FC097FF10C036
:1006600021E230E020933D4030933E409B01AC01BD
:100670000E94571C20E030E0A9010E94481DE5C0FF
:1006800020E030E040E05CE40E944C1D2B013C0186
:1006900087EE9FEF8D879E8712C06115710520E858
:1006A00082072FE7920708F0D0C04114510480E878
:1006B00068068FE3780609F4CDC01D861E869DE08E
:1006C000490E9BEF591E9AE4691E711CD301C201A9
:1006D000AF77BB27BC01CD016D507B4F8A4C904C4E
:1006E00020E030E040E85FE30E94571C6B017C0192
:1006F00020E030E040E050E40E94581C9B01AC0137
:10070000C701B6010E94481D69837A838B839C834D
:100710009B01AC010E944C1D6D837E838F83988763
:100720009B01AC010E944C1D4B015C0120E030E0BC
:1007300040E05FE3C701B6010E944C1DA70196018E
:100740000E944C1D69877A878B879C875524472C8C
:10075000440C551C67FA40F8662477242FE7421AA8
:1007600051086D857E85640D751D072E000C880B64
:10077000990B0E94C1142B013C0126E23EE948E797
:100780005EE3C501B4010E944C1D23E13EEC4CEC3C
:100790005EE30E94581CA50194010E944C1D6D87C8
:1007A0007E878F87988B2EEE39EE41E95EE3C50197
:1007B000B4010E944C1D2AEA3AEA4AE25FE30E9431
:1007C000581C2D813E814F8158850E944C1D9B01F4
:1007D000AC016D857E858F8598890E94581C29857E
:1007E0003A854B855C850E94581C29813A814B8152
:1007F0005C810E944C1D4B015C0121ED37EF47E10C
:1008000057E3C301B2010E944C1D9B01AC01C5011D
:10081000B4010E94581C29853A854B855C850E944D
:10082000571CA70196010E94581C6B017C0120E80F
:1008300031E741E35FE3C301B2010E944C1D9B011C
:10084000AC01C701B6010E94581C562F472F382F04
:10085000292F04C050E040E030E020E0652F742FE5
:10086000832F922F6096CDBFDEBFDF91CF91FF9097
:10087000EF90DF90CF90BF90AF909F908F907F9040
:080880006F905F904F90089506
:10088800AFE0B0E0EAE4F4E00C94761A1C016B01E6
:1008980049835A832B83FB018281938184809580CD
:1008A80000811181A680B78097FD02C00D7F02C02C
:1008B80081E090E0E981FA81408051806280738014
:1008C8009801207133272C833D83740104FF08C0ED
:1008D800411451046104710419F032E0E31AF1087B
:1008E800F801E870FF27EE83FF8303FF03C0F1E000
:1008F800EF1AF108F6010084F185E02D3197EE87B3
:10090800FF87EA0DFB1D10829C012E193F092887DD
:100918003987C801827099278A879B87EB818E2F38
:10092800EE0F990B9C01215431092C873D872E85A8
:100938003F852230310530F48C819D81892B09F067
:1009480042C05CC0411451046104710461F18E8598
:100958009F8501978E879F87C2018F7099278A305C
:10096800910514F4C09602C0895A9F4FEC85FD8505
:100978007A9748F49C012062215631092A313105C1
:1009880010F40E94FF1BEE85FF85EA0DFB1D808396
:10099800F1E0EF1AF10884E076946794579447944D
:1009A8008A95D1F7C4CF888599858E0D9F1D181615
:1009B80019066CF21E141F040CF0BECFEA85FB85E5
:1009C800EF2B29F6B9CFE981FA8180819181A28143
:1009D800B381892B8A2B8B2B89F0EE85FF85EA0D55
:1009E800FB1D31972B8120838E859F8502978E87EB
:1009F8009F87FC01EA0DFB1D80E38083EE81FF8168
:100A0800EF2B59F02E853F85215031092E873F87DE
:100A1800F901EA0DFB1D80E28083F60140855185CE
:100A2800415051092E853F85421B530BB9016A0D70
:100A38007B1D9401C1010E9435159C01F101808143
:100A4800918190FF06C0F6018281938182179307F6
:0C0A58000CF4C9012F96E2E10C94BF1AC7
:100A6400CF92DF92EF92FF92CF93DF93CFEFD4E454
:100A7400688179818A819B812AE939E949E95EE3C0
:100A84000E94571C6B017C016C817D818E819F814A
:100A94002AE939E949E95EE30E94571C9B01AC014C
:100AA400C701B6010E94581C288539854A855B8593
:100AB4000E94581C6B017C016C857D858E859F8509
:100AC4002AE939E949E95EE30E94571C9B01AC011C
:100AD400C701B6010E94581C20E030E040E85EE304
:100AE4000E944C1D6B017C01E894F7F8C114D104F9
:100AF40020E8E2062FE7F20688F08091D4458111C0
:100B040071C0609162457091634580916445909194
:100B140065450E945E1CD62FC72F66C020E030E0DA
:100B240040E251E40E944C1D6B017C0120E030E066
:100B3400A9010E943F1D88232CF060E070E080E052
:100B44009FE304C060E070E080E09FEBA7019601A2
:100B54000E94581C0E945E1C6B017C01D62FCD2D77
:100B64008091D445882389F0B601DD0C880B990B5C
:100B74000E94C114609362457093634580936445F9
:100B8400909365451092D4452FC060916245709151
:100B9400634580916445909165450E945E1C960171
:100BA400261B370B2430310514F023E030E02D3FB1
:100BB4004FEF340714F42DEF3FEF6901C60ED71E33
:100BC400B6010D2C000C880B990B0E94C114609384
:100BD4006245709363458093644590936545DC2D2D
:100BE400CD2D02C0D0E0C0E88D2F9C2FDF91CF9196
:0A0BF400FF90EF90DF90CF9008957E
:100BFE00CF92DF92EF92FF920F931F93CF93DF93DB
:100C0E0060911745709118458091194590911A453C
:100C1E008B019C013F770115110520483F4798F441
:100C2E0020911B4530911C4540911D4550911E450C
:100C3E0069017A01E894F7F8C114D104E0E8EE06F0
:100C4E00EFE7FE0688F08091D245811173C0609166
:100C5E005A4570915B4580915C4590915D450E942F
:100C6E005E1CD62FC72F68C00E94571C20E030E0B4
:100C7E0040E251E40E944C1D6B017C0120E030E00B
:100C8E00A9010E943F1D88232CF060E070E080E0F7
:100C9E009FE304C060E070E080E09FEBA701960147
:100CAE000E94581C0E945E1C6B017C01D62FCD2D1C
:100CBE008091D245882389F0B601DD0C880B990B03
:100CCE000E94C11460935A4570935B4580935C45B6
:100CDE0090935D451092D2452FC060915A45709108
:100CEE005B4580915C4590915D450E945E1C96012E
:100CFE00261B370B2B30310514F02AE030E0263F4F
:100D0E004FEF340714F426EF3FEF6901C60ED71EDE
:100D1E00B6010D2C000C880B990B0E94C114609328
:100D2E005A4570935B4580935C4590935D45DC2DF1
:100D3E00CD2D02C0D0E0C0E88D2F9C2FDF91CF913A
:0E0D4E001F910F91FF90EF90DF90CF900895CE
:100D5C00CF92DF92EF92FF920F931F93CF93DF937B
:100D6C00CDB7DEB72997CDBFDEBF6C01062F0E9431
:100D7C0045188823C9F0043059F460916A45709184
:100D8C006B4580916C4590916D450E945E1C0AC02C
:100D9C006091664570916745809168459091694571
:100DAC000E945E1C82E077C04CEC602FC6010E9452
:100DBC00431A4EEB602FC6010E94431A10E00EC07E
:100DCC00E12EF12C602FC6010E94281AE1E0F0E020
:100DDC00EC0FFD1FEE0DFF1D80831F5F193080F39C
:100DEC0068E0CE0101960E945D1A99858917C9F0B9
:100DFC00043059F460916A4570916B4580916C4553
:100E0C0090916D450E945E1C0AC060916645709180
:100E1C00674580916845909169450E945E1C83E00E
:100E2C003AC06A8170E0762F66278981682B072E7D
:100E3C00000C880B990B0E94C11420E030E048ECA8
:100E4C0050E40E944C1D0E945E1C6B017C0104301E
:100E5C0081F4B6010D2C000C880B990B0E94C11467
:100E6C0060936A4570936B4580936C4590936D4588
:100E7C000FC0B6010D2C000C880B990B0E94C114ED
:100E8C006093664570936745809368459093694578
:100E9C006C2D7D2D80E02996CDBFDEBFDF91CF91EB
:0E0EAC001F910F91FF90EF90DF90CF9008956F
:100EBA00CF93DF9380E094E0FC011482C0E4D4E095
:100ECA0021E02C83A0E6B4E014961C92149740EA21
:100EDA0054E0FA01248320E4FC0120832DE02883D6
:100EEA002EEF2C9321E3FA012083FC01108A118A48
:100EFA00128A138A148A158A168A178A188A198AEC
:100F0A001A8A1B8A1C8A1D8A1E8A1F8A50961C925C
:100F1A00509751961C92519752961C9252975396FB
:100F2A001C92539754961C92549755961C92559717
:100F3A0056961C92569757961C92FA01108A118A55
:100F4A00128A138A148A158A168A178AE0EEF5E03D
:100F5A0011861182108283E084831682178210869A
:100F6A0015821282128680E69DE10E94A91C81E602
:100F7A009DE10E94AE1C82E69DE10E94B31C83E6BD
:100F8A009DE10E94B81C84E69DE10E94BD1C85E695
:100F9A009DE10E94C21C86E69DE10E94C71C87E66D
:100FAA009DE10E94CC1C88E69DE10E94D11C89E645
:100FBA009DE10E94D61C8AE69DE10E94DB1C8BE61D
:100FCA009DE10E94E01C8CE69DE10E94E51C8DE6F5
:100FDA009DE10E94EA1C8EE69DE10E94EF1C8FE6CD
:100FEA009DE10E94F41C80E79DE10E94F91C81E7C3
:100FFA009DE10E94FE1C82E79DE10E94031D83E79A
:0C100A009DE10E94081DDF91CF91089528
:10101600CF92DF92EF92FF92CF93DF9320910F450D
:10102600309110454091114550911245DA01C901A0
:10103600BF770097A048BF4798F460911345709119
:10104600144580911545909116456B017C01E894F5
:10105600F7F8C114D104E0E8EE06EFE7FE0688F0E3
:101066008091D345811173C060915E4570915F4553
:1010760080916045909161450E945E1CD62FC72FD6
:1010860068C00E94571C20E030E040E251E40E9414
:101096004C1D6B017C0120E030E0A9010E943F1D40
:1010A60088232CF060E070E080E09FE304C060E0FD
:1010B60070E080E09FEBA70196010E94581C0E94F9
:1010C6005E1C6B017C01D62FCD2D8091D3458823E4
:1010D60089F0B601DD0C880B990B0E94C114609350
:1010E6005E4570935F45809360459093614510928D
:1010F600D3452FC060915E4570915F4580916045F4
:10110600909161450E945E1C9601261B370B263086
:10111600310514F025E030E02B3F4FEF340714F48F
:101126002BEF3FEF6901C60ED71EB6010D2C000C42
:10113600880B990B0E94C11460935E4570935F45BE
:101146008093604590936145DC2DCD2D02C0D0E0A3
:10115600C0E88D2F9C2FDF91CF91FF90EF90DF900D
:04116600CF90089589
:10116A00AF92BF92CF92DF92EF92FF920F931F93AB
:10117A00CF93DF9300D000D0CDB7DEB75C018B01EF
:10118A00E6E6F4E080E880836894FF24F1F8F082D0
:10119A0085E08A95F1F70000CE0101960E946E154E
:1011AA00F09265048981CA80D12CE12CF12C760158
:1011BA00DD24CC24F82A8B8190E0A0E0B0E0BA2F9D
:1011CA00A92F982F8827C82AD92AEA2AFB2A8C818C
:1011DA00C82AE0FE06C0C2FC4BC0C1FC4BC0C0FC22
:1011EA004BC0D701C601072E72E1B695A795979510
:1011FA0087957A95D1F7702DBC01FF200CF4706C9D
:10120A00072E000C880B990B0E94C11420E030E0D5
:10121A0040E85EE30E944C1D20E030E04CE052E4DE
:10122A000E94581CF5016083718382839383D701DE
:10123A00C601689413F8B695A7959795879516945D
:10124A00D1F7BC017F70D7FC706F072E000C880B9A
:10125A00990B0E94C11420E030E040E85DE30E944F
:10126A004C1DF801608371838283938380E005C0FB
:10127A0081E003C082E001C083E02496CDBFDEBFD7
:10128A00DF91CF911F910F91FF90EF90DF90CF9058
:06129A00BF90AF90089523
:1012A0001F93CF93DF93809145439091464380FFF6
:1012B0008BC080E18093650411E020C020914743FA
:1012C00030914843812F90E00197082E02C0359558
:1012D00027950A94E2F720FF10C06091CF45EC01FA
:1012E000CC0FDD1F8C0F9D1FEC01CC5EDF4B812FDF
:1012F0000E94DB15688379838A831F5F1930F0F2BF
:101300000E94531D8230E9F48091474390914843F5
:1013100090FF17C0CCE2D0E40E94041028833983E8
:101320004A835B836C833F9380912C408F9386ED3F
:1013300091E89F938F930E948F1A0F900F900F90B8
:101340000F900E94561D8230D1F5809147439091B5
:10135000484392FF15C0C4E1D0E40E94861B6BA3F2
:101360007CA38DA38CA18F938BA18F9381EE91E8A9
:101370009F938F930E948F1A0F900F900F900F9052
:10138000809147439091484393FF15C0C4E1D0E456
:101390000E94941B6EA37FA388A78FA18F938EA119
:1013A0008F938AEE91E89F938F930E948F1A0F90EC
:1013B0000F900F900F901092D6450E941C1280E162
:1013C000809366040E949B0BDF91CF911F9108953B
:1013D0008F929F92AF92BF92CF92DF92EF92FF9245
:1013E00092E0909365040E94AA126B017C0120E0B8
:1013F00030E040E85FE30E943A1D88230CF462C0AD
:1014000020E030E040E859E3C701B6010E944C1DDE
:1014100020E030E040E450E40E944C1D6B017C0170
:1014200020E030E0A9010E943A1D18160CF04FC0D0
:1014300020E030E040E450E4C701B6010E943F1DC7
:1014400088230CF049C020E030E44CE156E4C701A9
:10145000B6010E944C1D4B015C01A701960160E0A2
:1014600070E080E490E40E94571C9B01AC01C50130
:10147000B4010E94481D20E030E44CE156E40E9493
:10148000481D0E94F8022CE734ED43E859E30E941E
:101490004C1D2FE03FEC4BE55BE30E94581C9B0189
:1014A000AC0160E070E080E89FE30E94481D23E308
:1014B00033E948E853E40E94571C562F472F382F32
:1014C000292F0EC050E040E030E82FEF09C050E077
:1014D00040E030E82FEF04C050E040E030E82FEF6C
:1014E000652F742F832F922FFF90EF90DF90CF9076
:0A14F000BF90AF909F908F90089579
:1014FA00CF93DF93E0E2F8E0D181C081E091CA4561
:10150A0081E08E0F8093CA45F0E0EE5FFF4BC08307
:10151A00E091CD45F0E0EE0FFF1FE15CFB4B10823E
:10152A001182D2FF1AC0E091CD45F0E0EE0FFF1F05
:10153A00E15CFB4B808182608083809112409091B4
:10154A00134001968093124090931340E091B24564
:10155A00F091B345309709F00995D1FF15C0E4EB36
:10156A00F5E480818160808380910E4090910F40E4
:10157A00019680930E4090930F40E091AE45F09112
:10158A00AF45309709F00995D6FF1AC0E091CD45CD
:10159A00F0E0EE0FFF1FE15CFB4B808184608083EB
:1015AA0080910C4090910D40019680930C4090934D
:1015BA000D40E091B045F091B145309709F0099599
:1015CA008091CD458F5F8F739091CC4589130AC066
:1015DA008091104090911140019680931040909311
:1015EA0011400DC0E091CD45F0E0E154FB4BC083C2
:1015FA008093CD458091CB458F5F8093CB45E09119
:10160A00AA45F091AB45309709F00995DF91CF9142
:02161A00089531
:10161C000F931F93CF93DF938091D045882309F4C8
:10162C007FC0EFE3F2E47781668155814481338199
:10163C002281918180811F927F931F926F931F92C1
:10164C005F931F924F931F923F931F922F931F9262
:10165C009F931F928F9381EA91E89F938F930E949F
:10166C008F1A8091D1452DB73EB72E5E3F4F2DBFBF
:10167C003EBF843008F450C080913F42823009F064
:10168C004BC0E091D145F0E0E35CFD4B8081E091F3
:10169C00D145F0E0E25CFD4BC081D0E0DC2FCC27E3
:1016AC00C82B8E016091D14562508FE392E40E9469
:1016BC006C1808171907A1F020E2209367049F9378
:1016CC008F93DF93CF938AEC91E89F938F930E9433
:1016DC008F1A0F900F900F900F900F900F901CC0BF
:1016EC00809140428330C0F0853018F0803141F059
:1016FC0013C09091D145983079F40E9477130CC0A7
:10170C008091454229E0280F9091D145291304C0BE
:10171C00823010F00E94940E1092D1451092D04558
:0A172C00DF91CF911F910F910895F6
:101736000F931F93CF93DF9320E030E024C0D901AD
:101746001D96F901EE0FFF1FE20FF31FEC5EFF4B34
:1017560080819181CFE3D3E4AA0FBB1FA15CBC4B70
:101766008D939C934AA55BA59281892F90E0022ECA
:1017760002C0880F991F0A94E2F7842B952B8AA73B
:101786009BA72F5F3F4F28303105CCF204E110E4D0
:10179600F801808D918DCFE3D3E48CA79DA7828D30
:1017A600938D8EA79FA7848D90E088AB99AB858D8E
:1017B600968D8AAB9BAB878D90A18CAB9DAB81A19F
:1017C60092A18EAB9FAB83A194A188AF99AF85A15F
:1017D60090E08CAF9DAF86A197A18AAF9BAF80A505
:1017E60090E08EAF9FAF0E9432058A879B87F801F3
:1017F600808D918D8C879D8786A197A18E879F87E7
:101806000E940B08888B998B0E94FF058A8B9B8B05
:10181600F80183A194A1888F998FDF91CF911F91B1
:041826000F91089581
:10182A00A2E0B0E0EBE1FCE00C94761A3C016B011B
:10183A00FB0122813381A480B580808191818983D3
:10184A009A8386809780FA01208031804280538073
:10185A00B201A10157FE07C044275527BA01421910
:10186A0053096409750937FD03C08D7F89839A83FB
:10187A00950157FC05C0898182FD02C083FF02C021
:10188A0021503109CE0101967C010AE010E0C6011F
:10189A000E942F0E57FC03C0298122FF0AC001971C
:1018AA00F401E80FF91F57FC02C02BE209C02DE230
:1018BA0007C023FF06C00197F401E80FF91F20E2D1
:1018CA00208309811A81F6014085518541505109C9
:1018DA00481B590BB401680F791F9501C3010E9477
:1018EA0035159C01F3018081918190FF06C0F601B4
:1018FA0082819381821793070CF4C9012296E2E14F
:04190A000C94BF1A60
:10190E0010C00E946C1C58F00E94651C40F029F417
:10191E005F3F29F00C949E1C51110C94741C0C9476
:10192E00591D0E94D61868F39923B1F3552391F3EC
:10193E00951B550BBB27AA2762177307840738F030
:10194E009F5F5F4F220F331F441FAA1FA9F335D08D
:10195E000E2E3AF0E0E832D091505040E695001C41
:10196E00CAF72BD0FE2F29D0660F771F881FBB1FFB
:10197E00261737074807AB07B0E809F0BB0B802DD9
:10198E00BF01FF2793585F4F3AF09E3F510578F005
:10199E000C949E1C0C94741C5F3FE4F3983ED4F39D
:1019AE00869577956795B795F7959F5FC9F7880FD9
:1019BE00911D9695879597F90895E1E0660F771F2B
:1019CE00881FBB1F621773078407BA0720F0621BBC
:0E19DE00730B840BBA0BEE1F88F7E09508958B
:1019EC000FC00E94651C38F00E946C1C20F09523DF
:1019FC0011F00C949E1C0C94591D11240C94741C05
:101A0C000E94D61870F3959FC1F3950F50E0551FA7
:101A1C00629FF001729FBB27F00DB11D639FAA2737
:101A2C00F00DB11DAA1F649F6627B00DA11D661F86
:101A3C00829F2227B00DA11D621F739FB00DA11DA7
:101A4C00621F839FA00D611D221F749F3327A00D61
:101A5C00611D231F849F600D211D822F762F6A2FFD
:101A6C0011249F5750409AF0F1F088234AF0EE0F62
:101A7C00FF1FBB1F661F771F881F91505040A9F78F
:101A8C009E3F510580F00C949E1C0C94741C5F3F7F
:101A9C00E4F3983ED4F3869577956795B795F795CB
:101AAC00E7959F5FC1F7FE2B880F911D9695879543
:041ABC0097F90895F9
:101AC000CF93DF93DC01F90168387105F1F05CF424
:101AD0006138710561F164387105A1F160387105F3
:101AE00009F051C02FC0603C710509F441C0603F4E
:101AF0007105F1F1603A710509F045C0C081D181ED
:101B0000CE0102968083918325C0C081D181CE0110
:101B1000029680839183452B39F04881042E000C76
:101B2000550B660B770B1CC0488150E029C0C08163
:101B3000D181CE01049680839183488159816A8145
:101B40007B810EC0C081D181CE01029680839183BA
:101B5000452BA1F048815981052E000C660B770BAF
:101B60004D935D936D937C93139781E090E00DC04E
:101B7000C081D181CE0102968083918348815981B1
:101B800060E070E0EDCF80E090E0DF91CF910895CC
:101B900011C00E94651C38F00E946C1C20F039F4C2
:101BA0009F3F19F426F40C94591D0EF4E095E7FBC1
:101BB0000C949E1CE92F0E94D61858F3BA1762079E
:101BC00073078407950720F079F4A6F50C94731C2D
:101BD0000EF4E0950B2EBA2FA02D0B01B901900148
:101BE0000C01CA01A0011124FF27591B99F0593F8C
:101BF00050F4503E68F11A16F040A22F232F342FD4
:101C00004427585FF3CF469537952795A795F04021
:101C10005395C9F77EF41F16BA0B620B730B840B36
:101C2000BAF09150A1F0FF0FBB1F661F771F881FEE
:101C3000C2F70EC0BA0F621F731F841F48F4879546
:101C400077956795B795F7959E3F08F0B0CF939538
:0E1C5000880F08F09927EE0F97958795089555
:101C5E00A0E0B0E0E5E3FEE00C94781ADC01280188
:101C6E001696AD90BC901797F701808191811296D0
:101C7E00ED91FC9113971896CD91DC9119972197C0
:101C8E00F7FF02C0E1E0F0E0CA0DDB1D188269012A
:101C9E00A1E0B0E08F01021B130B4C01F2E08F228A
:101CAE009924052C000C66087708CE018A199B0929
:101CBE00CA15DB0519F1411551056105710589F04C
:101CCE00CB01BA01A30192010E94F818CA01A62FF6
:101CDE00B72F605D6A9341E0C41AD108A901BC0117
:101CEE00E4CF98012C0D3D1D121613064CF31C1457
:101CFE001D0434F48114910419F702C080E090E0C1
:101D0E00AB2B31F4F701208131812F7E208331837B
:0A1D1E00CDB7DEB7E0E10C94C11A66
:101D2800EF92FF920F931F93CF93DF93EFE3F2E4C9
:101D3800D2818D2F90E0982F8827C3817C01EC2ACF
:101D4800A701B4812B2F30E0322F2227A581C901AA
:101D58008A2BBC0126818C01015011090B37110512
:101D6800D8F530E08C01000F111F20173107A1F5BD
:101D78008E0D9F1D8138910578F520E030E01CC05C
:101D8800F901EE0FFF1FEA5BFD4B808190E0982F71
:101D98008827F9013496EE0FFF1FE15CFD4BE081C7
:101DA8008E2BF901E40FF51FEE0FFF1FE15CFC4BD2
:101DB800808391832F5F3F4F2617370708F3EFE3A0
:101DC800F1E482E0808380E18183D283C383B4839A
:101DD800A58386E00E94A615DF91CF911F910F91F0
:061DE800FF90EF9008954A
:101DEE0090E0FC013197E830F10508F053C0E85A55
:101DFE00FF4F0C94F61B84E080934604E6EAF4E071
:101E0E0080E2808380E18083089584E0809345049E
:101E1E00E6EAF4E080E2808380E18083089584E046
:101E2E008093460480E28093A50480E18093A6040B
:101E3E00089584E08093450480E28093A50480E1B8
:101E4E008093A604089584E08093460480E28093F4
:101E5E00A60480E18093A504089584E08093450450
:101E6E0080E28093A60480E18093A504089584E027
:101E7E0080934604E5EAF4E080E2808380E180838B
:101E8E00089584E080934504E5EAF4E080E28083DF
:061E9E0080E1808308953D
:101EA4001F920F920FB60F9211240BB60F922F931D
:101EB4003F934F935F936F937F938F939F93AF93CE
:101EC400BF93EF93FF93799B05C0E0918045F09118
:101ED400814509957A9B05C0E0917E45F0917F4547
:101EE40009957B9B05C0E0917C45F0917D45099562
:101EF4007C9B05C0E0917A45F0917B4509957D9BDB
:101F040005C0E0917845F091794509957E9B05C01F
:101F1400E0917645F091774509957F9B05C0E09166
:101F24007445F091754509958FEF8FB9FF91EF9145
:101F3400BF91AF919F918F917F916F915F914F91DD
:101F44003F912F910F900BBE0F900FBE0F901F90DB
:021F54001895DE
:101F5600A2E0B0E0E1EBFFE00C947A1A4C016B01D1
:101F6600FB01228133816480758080819181898320
:101F76009A83A680B78037FD03C08D7F89839A83B5
:101F8600FA014081518162817381CE0101967C0103
:101F960008E010E09301C6010E942F0E298124FF5C
:101FA60006C00197F501E80FF91F20E32083298178
:101FB60023FF06C00197F501E80FF91F20E22083F1
:101FC60009811A81F6014085518541505109481B06
:101FD600590BB501680F791F9301C4010E9435158D
:101FE6009C01F4018081918190FF06C0F6018281F7
:101FF6009381821793070CF4C9012296EEE00C94A4
:02200600C31AFB
:102008001F93CF93DF93CDB7DEB76297CDBFDEBF07
:10201800BE01615F7F4FCE010B960E94B508182F55
:10202800882379F08A871E821F821886198685E0A0
:10203800FE013696DE01119601900D928A95E1F720
:1020480026C06B857C858D859E8520E030E048EC38
:1020580052E40E944C1D0E945E1C6E837F836F8534
:10206800788989899A8920E030E048EC52E40E9416
:102078004C1D0E945E1C688779871A8785E0FE01DF
:102088003696DE01119601900D928A95E1F7298125
:102098003A814B815C816D8170E080E090E06296CE
:0C20A800CDBFDEBFDF91CF911F910895E6
:1020B400E0E4F9E024818381806883838091494549
:1020C40090914A45892B49F180914B45813829F0FB
:1020D400E0914745F09148452083E5E4F5E48081AB
:1020E4009181019680839183828193810196828379
:1020F40093838681882331F0E0914545F0914645EC
:10210400208101C020E0E5E4F5E484819581019714
:102114008483958320934409089580914B458138A5
:1021240049F080914C45823429F4E0914745F0917F
:102134004845208381E880934C45E0E4F9E08281BE
:102144008F778283E0916E45F0916F45309709F067
:04215400099508954C
:102158000F931F93CF93DF93DB01109719F48FEF41
:102168009FEF3DC02D913C91119730FF25C01696E9
:102178004D915C91179714962D913C9115974217A4
:10218800530778F41296ED91FC9113978083129679
:102198002D913C9113972F5F3F4F12962D933C93AF
:1021A800139716962D913C9117972F5F3F4F1696D0
:1021B8002D933C93179713C01C96ED91FC911D9796
:1021C800309769F2EB01092F182F0995892B39F6F9
:1021D8008E819F8101968E839F83812F902FDF911F
:0821E800CF911F910F910895A2
:1021F0001F920F920FB60F9211240BB60F922F93CE
:102200003F934F935F936F937F938F939F93AF937E
:10221000BF93EF93FF931A9B05C0E0918E45F09119
:102220008F4509951B9B05C0E0918C45F0918D452C
:1022300009951D9B05C0E0918A45F0918B45099554
:102240001F9B05C0E0918845F091894509951E9B2B
:1022500005C0E0918645F091874509958FEF83B9D8
:10226000FF91EF91BF91AF919F918F917F916F916E
:102270005F914F913F912F910F900BBE0F900FBE2A
:062280000F901F9018955D
:10228600CF93DF938DE79AE080930A4090930B40BB
:102296008CE797E18093004090930140C0E2D8E03C
:1022A6008AE09AE18887998780ED8D8380EC8E831A
:1022B60083E08F831B861C861E861D8689E79DE12B
:1022C6000E942D1C8AE79DE10E94341C8BE79DE14C
:1022D6000E943B1C1092B4451092B5451092BA4527
:1022E6001092BB451092B8451092B94580E091E036
:1022F6008093B6459093B74581E08093CE45109282
:10230600CD451092CC451092CB458D8180688D834A
:06231600DF91CF91089554
:10231C0043E068ED80E690E00E940D1D40E068ED22
:10232C0081E690E00E940D1D40E068ED88E790E0AA
:10233C000E940D1D4CE168ED88E690E00E940D1D99
:10234C0040E068ED89E690E00E940D1D40E468EDE8
:10235C0080E790E00E940D1D40E068ED8CE790E076
:10236C000E940D1D44E068ED82E690E00E940D1D78
:10237C0040E068ED83E690E00E940D1D40E068EDC2
:10238C0084E690E00E940D1D45E168ED80E890E048
:0E239C000E940D1D8091650084FFFCCF089506
:1023AA001F920F920FB60F9211240BB60F922F9312
:1023BA003F934F935F936F937F938F939F93AF93C3
:1023CA00BF93EF93FF938091420180FF0BC08091EE
:1023DA00430180FF07C0E091A045F091A1453097E5
:1023EA0009F009958091420181FF0BC08091430158
:1023FA0081FF07C0E0919E45F0919F45309709F013
:10240A00099583E080934301FF91EF91BF91AF91CA
:10241A009F918F917F916F915F914F913F912F91F2
:0E242A000F900BBE0F900FBE0F901F901895D5
:10243800CF93809147439091484392FF15C064E041
:1024480080E094E00E944518811110C04CEC64E0D3
:1024580080E094E00E94431A44E464E080E094E061
:102468000E94431AC1E003C0C0E001C0C0E08091EF
:1024780047439091484393FF14C068E080E094E09C
:102488000E94451881110DC04CEC68E080E094E092
:102498000E94431A44E468E080E094E00E94431AF2
:1024A800C1E0CC2351F081E08093D645E0E1FBE028
:0E24B80012861386858181608583CF910895F9
:1024C600A2E0B0E0E9E6F2E10C947A1A5C016B0155
:1024D600FB0122813381848095808081918189836B
:1024E6009A836680778037FD03C08D7F89839A83C0
:1024F600FA014081518162817381CE0101967C018E
:102506000AE010E09401C6010E942F0E09811A818B
:10251600F6014085518541505109481B590BB301BD
:10252600680F791F9401C5010E9435159C01F501BC
:102536008081918190FF06C0F60182819381821786
:0E25460093070CF4C9012296EEE00C94C31A20
:10255400CF92DF92EF92FF921F93CF93DF93662384
:1025640061F1D62F182FC0E0C12CD12C76010CC0FC
:10257400812F0E94A517C80ED91EE11CF11C82E010
:102584008A95F1F700C0CF5FCD1790F3C701B6016C
:102594000E94BF146B017C016D2F70E080E090E01D
:1025A4000E94BF149B01AC01C701B6010E94481DE3
:1025B400562F472F382F292F04C050E040E030E039
:1025C40020E0652F742F832F922FDF91CF911F91DD
:0A25D400FF90EF90DF90CF90089584
:1025DE001F920F920FB60F9211240BB60F922F93DC
:1025EE003F934F935F936F937F938F939F93AF938D
:1025FE00BF93EF93FF93599B05C0E0919645F091E1
:10260E0097450995589B05C0E0919445F0919545E5
:10261E0009955A9B05C0E0918445F0918545099531
:10262E005B9B05C0E0918245F091834509958FEF44
:10263E008BB9FF91EF91BF91AF919F918F917F9148
:10264E006F915F914F913F912F910F900BBE0F9015
:08265E000FBE0F901F901895AC
:102666001F920F920FB60F9211240BB60F922F9353
:102676003F934F935F936F937F938F939F93AF9304
:10268600BF93EF93FF93B99B05C0E0919245F091FC
:1026960093450995B89B05C0E0919045F091914509
:1026A6000995BC9B05C0E0917245F091734509956B
:1026B600BD9B05C0E0917045F091714509958FEF7E
:1026C60087BBFF91EF91BF91AF919F918F917F91C2
:1026D6006F915F914F913F912F910F900BBE0F908D
:0826E6000FBE0F901F90189524
:1026EE00EFE3F2E4428150E0542F44279381492BCB
:1026FE00BA01248130E0322F22279581292BD9016E
:10270E00F9013197ED37F10570F5420F531F41383E
:10271E00510548F5EFE3F1E492E090838183822F37
:10272E00880F828320E030E018C0F901E60FF71F12
:10273E00EE0FFF1FE15CFC4B40815181F901EE0F62
:10274E00FF1FEE5BFE4B5083F9013296EE0FFF1F1B
:10275E00E15CFE4B40832F5F3F4F2A173B0728F368
:08276E008D5F0E94A61508957D
:102776001F920F920FB60F9211240BB60F922F9342
:102786003F934F935F936F937F938F939F93AF93F3
:10279600BF93EF93FF938091060B80FF0AC0E091F1
:1027A6009845F0919945309709F0099581E0809315
:1027B600060B8091060B81FF0AC0E0919A45F091C5
:1027C6009B45309709F0099582E08093060BFF91AF
:1027D600EF91BF91AF919F918F917F916F915F9193
:1027E6004F913F912F910F900BBE0F900FBE0F9000
:0427F6001F90189583
:1027FA001F920F920FB60F9211240BB60F922F93BE
:10280A003F934F935F936F937F938F939F93AF936E
:10281A00BF93EF93FF938091260B80FF0AC0E0914C
:10282A00BE45F091BF45309709F0099581E0809344
:10283A00260B8091260B81FF0AC0E091C045F091DA
:10284A00C145309709F0099582E08093260BFF91E4
:10285A00EF91BF91AF919F918F917F916F915F910E
:10286A004F913F912F910F900BBE0F900FBE0F907B
:04287A001F901895FE
:10287E001F920F920FB60F9211240BB60F922F9339
:10288E003F934F935F936F937F938F939F93AF93EA
:10289E00BF93EF93FF938091160B80FF0AC0E091D8
:1028AE00C245F091C345309709F0099581E08093B8
:1028BE00160B8091160B81FF0AC0E091C445F09172
:1028CE00C545309709F0099582E08093160BFF916C
:1028DE00EF91BF91AF919F918F917F916F915F918A
:1028EE004F913F912F910F900BBE0F900FBE0F90F7
:0428FE001F9018957A
:102902000E94801C8091D145882319F081E0809338
:10291200D04584E080936604E2E0F0E4778166814A
:102922005581448133812281918180811F927F93DD
:102932001F926F931F925F931F924F931F923F9329
:102942001F922F931F929F931F928F938CE691E871
:102952009F938F930E948F1A8DB79EB742968DBF19
:102962009EBF80E006C0E82FF0E0EE5FFF4B1082D2
:0C2972008F5F8830C0F31092CA450895B2
:10297E00E89409C097FB3EF490958095709561950B
:10298E007F4F8F4F9F4F9923A9F0F92F96E9BB27C1
:10299E009395F695879577956795B795F111F8CF3D
:1029AE00FAF4BB0F11F460FF1BC06F5F7F4F8F4FA8
:1029BE009F4F16C0882311F096E911C0772321F09E
:1029CE009EE8872F762F05C0662371F096E8862F36
:1029DE0070E060E02AF09A95660F771F881FDAF78D
:0A29EE00880F9695879597F90895D4
:1029F8001F920F920FB60F9211240BB60F922F93BE
:102A08003F934F935F936F937F938F939F93AF936E
:102A1800BF93EF93FF938091240886FB882780F962
:102A28008093CE45E091AC45F091AD45309709F0E3
:102A38000995E0E2F8E0848180648483FF91EF9156
:102A4800BF91AF919F918F917F916F915F914F91BE
:102A58003F912F910F900BBE0F900FBE0F901F90BC
:022A68001895BF
:102A6A00A0E0B0E0EBE3F5E10C947C1A6C015B01A9
:102A7A007A01E901480181E08822992400FD03C016
:102A8A004217530750F0A701B501C6010E94D41995
:102A9A00EC16FD0610F0C70117C08E010E191F09AA
:102AAA000115110541F0B60180E290E00E94AC10D8
:102ABA0001501109F5CF8114910429F4A701B50138
:102ACA00C6010E94D419CE01CDB7DEB7ECE00C9452
:022ADA00C51A1B
:102ADC00CF92DF92EF92FF92FC012FE130E0C12CFC
:102AEC00D12C760122C090E49093050485E08A9560
:102AFC00F1F70000159B10C041E050E060E070E081
:102B0C00022E04C0440F551F661F771F0A94D2F77C
:102B1C00C42AD52AE62AF72A90E49093060485E085
:102B2C008A95F1F70000215031093323E4F6F08245
:102B3C00E182D282C382FF90EF90DF90CF90089514
:102B4C00FF920F931F93CF93DF93C82F682F8FE3C0
:102B5C0091E40E946C18D0E0FE01E15CFE4B808396
:102B6C00FE01E05CFE4B90830E94801C88E0809309
:102B7C0065040E94081CF12C0BC00E94ED1B8823DD
:102B8C00E1F3F801E15CFE4B80810E94D116F394D5
:102B9C000F2D10E0CE0102960817190774F3DF9180
:0A2BAC00CF911F910F91FF90089543
:102BB600CF92DF92EF92FF92CF93C82F0E94E8093F
:102BC6006B017C01EC2FF0E03197EE0FFF1FEE0F4B
:102BD600FF1FE150FB4B60837183828393832FEF4A
:102BE6003FEF4FE75FEF0E943A1D882324F4C1E0D0
:102BF60060E070E80BC0C0E020E030E040E251E465
:102C0600C701B6010E944C1D0E945E1C8C2FCF91FD
:0A2C1600FF90EF90DF90CF9008953B
:102C2000A2E8B0E0E6E1F6E10C947C1A5C014A010E
:102C300069837A83C12CD12CE981FA818081882330
:102C4000E9F07401860120E830E0AE014D5F5F4F8E
:102C5000BE016F5F7F4FC5010E94FA008C0D9D1D64
:102C60008C159D054CF48FE490E080933D4090934B
:102C70003E408FEF9FEF03C06C01DECFC601CE5701
:082C8000DF4FECE00C94C51AD3
:102C88001F920F920FB60F9211240BB60F922F932B
:102C98003F934F935F936F937F938F939F93AF93DC
:102CA800BF93EF93FF93E0919C45F0919D4530973A
:102CB80009F0099581E080935301FF91EF91BF914D
:102CC800AF919F918F917F916F915F914F913F91BC
:102CD8002F910F900BBE0F900FBE0F901F9018955D
:102CE8000E94DE1888F09F5798F0B92F9927B7519E
:102CF800B0F0E1F0660F771F881F991F1AF0BA9598
:102D0800C9F714C0B13091F00E94731CB1E0089566
:102D18000C94731C672F782F8827B85F39F0B93F58
:102D2800CCF3869577956795B395D9F73EF490954A
:0E2D38008095709561957F4F8F4F9F4F089546
:102D4600DC01ED91FC91119780818A3221F080E0BF
:102D560090E03AE00EC03196ED93FC93DB01ED91E5
:102D6600FC911197CF0102968D939C93808191815E
:102D76000895ED91FC911197208120532A3068F433
:102D8600389FA001399F500D1124CA01820F911D51
:0C2D96003196ED93FC931197ECCF08955B
:102DA2002091B6453091B745232BF9F0E091BA4511
:102DB200F091BB45E15CFF4B80838091BA459091D5
:102DC200BB45019699278093BA459093BB45E0E2B3
:102DD200F8E085818F7D85838091B6459091B745D6
:102DE20001978093B6459093B745E0E2F8E085817C
:062DF20080628583089554
:102DF8001F920F920FB60F9211240BB60F922F93BA
:102E08003F934F935F936F937F938F939F93AF936A
:102E1800BF93EF93FF93E0910A40F0910B4009951F
:102E2800FF91EF91BF91AF919F918F917F916F919A
:102E38005F914F913F912F910F900BBE0F900FBE56
:062E48000F901F90189589
:102E4E001F920F920FB60F9211240BB60F922F9363
:102E5E003F934F935F936F937F938F939F93AF9314
:102E6E00BF93EF93FF93E0910040F09101400995DD
:102E7E00FF91EF91BF91AF919F918F917F916F9144
:102E8E005F914F913F912F910F900BBE0F900FBE00
:062E9E000F901F90189533
:102EA400A0E0B0E0E8E5F7E10C947E1A7C01FB01B8
:102EB400EA01C901A280B380C480D5800081118158
:102EC400209711F4CDE4D5E4009719F4CE010E94C3
:102ED400A21BB7FC04C0A816B90608F4C5019601E4
:102EE400AC01BE01C7010E943515CDB7DEB7EAE0DB
:042EF4000C94C71A59
:102EF8008091B6459091B74591111DC0E091B845B4
:102F0800F091B945E15CFF4B808180932208809164
:102F1800B8459091B945019699278093B845909303
:102F2800B9458091B6459091B74501968093B645CD
:102F38009093B7450895E0E2F8E085818F7D858319
:022F48000895EA
:102F4A000E94F70E80E88093650432E03A95F1F723
:102F5A0000C020E080E090E013C030E43093050424
:102F6A0032E03A95F1F700C0880F991F15998160F0
:102F7A0030E43093060432E03A95F1F700C02F5F4F
:102F8A00203158F320E820936604969587959F7020
:022F9A00089598
:102F9C001F920F920FB60F9211240BB60F922F9314
:102FAC003F934F935F936F937F938F939F93AF93C5
:102FBC00BF93EF93FF930E945A10FF91EF91BF9133
:102FCC00AF919F918F917F916F915F914F913F91B5
:102FDC002F910F900BBE0F900FBE0F901F90189556
:102FEC00E0E4F8E08AE09AE180879187158280EC32
:102FFC00868383E08783138614861686158686E778
:10300C009DE10E94181C87E79DE10E941F1C88E728
:10301C009DE10E94261C1092A8451092A945E091B2
:10302C00C645F091C74585E395E480839183089567
:10303C0080E090E008C0FC01EE0FFF1FE15CFC4B50
:10304C0010821182019680389105ACF3EFE3F3E422
:10305C0084E690E08083918312821382148215821D
:10306C0083E090E0868397838FEF9DE08087918744
:0E307C000E94EE1A0E94501C0E94541B0895E0
:10308A00FC01618366838FE797E00197F1F700C03F
:10309A000000628387E191E00197F1F700C0000028
:1030AA008085862341F087E696E00197F1F700C014
:1030BA00000082E0089587E696E00197F1F700C0E4
:0E30CA0000008085682381E009F080E0089511
:1030D800AC0120E08FEF9FEF1CC0FA01E20FF11D59
:1030E80030818327382F32953827032E3695369529
:1030F8003025032E369530253770082E892F3695C2
:1031080007943795902D8327069437959025832724
:083118002F5F261710F3089544
:10312000990F0008550FAA0BE0E8FEEF16161706D8
:10313000E807F907C0F012161306E407F50798F040
:10314000621B730B840B950B39F40A2661F0232B59
:10315000242B252B21F408950A2609F4A140A695D5
:083160008FEF811D811D089510
:10316800809141018111FCCFE0E4F1E08FEF9FE70E
:1031780084879587108611868FEF9FEF82879387C4
:1031880017821282158281E080838091510181111A
:10319800FCCFE0E4F1E081E0828B158A81E7808B47
:0431A80080E0089526
:1031AC0057FD9058440F551F59F05F3F71F04795EC
:1031BC00880F97FB991F61F09F3F79F087950895D1
:1031CC00121613061406551FF2CF4695F1DF08C0F0
:1031DC00161617061806991FF1CF8695710561050D
:0431EC0008940895A6
:1031F000A1E21A2EAA1BBB1BFD010DC0AA1FBB1FFB
:10320000EE1FFF1FA217B307E407F50720F0A21B6C
:10321000B30BE40BF50B661F771F881F991F1A94D9
:1032200069F760957095809590959B01AC01BD0103
:04323000CF0108952D
:10323400E091CC45F0E0E154FB4B80819091CC458A
:103244009F5F9F739093CC45E0E2F8E095819F7770
:1032540095839091CB45992329F09091CB4591503A
:103264009093CB45E0E2F8E09581906895830895CA
:10327400CF93DF93EC0190E0E92FF0E0EE0FFF1F16
:10328400E15EFA4B8081811102C081810EC0A88168
:10329400B9812C91821305C091811196A883B983B9
:1032A40001C09F5F9B3040F3892FDF91CF91089538
:1032B400CF93DF93C0E0DBE088818E7F888319821F
:1032C40018861C8280E09AEF8C879D871A861B865D
:1032D4001E8284E79DE10E94171D85E79DE10E94FF
:0E32E4001C1D1D8281E08883DF91CF9108952B
:1032F200CF93DF93C0E2DBE088818E7F88831982DF
:1033020018861C828AE698E18C879D871A861B861E
:103312001E828CE79DE10E94261D8DE79DE10E94A1
:0E3322002B1D1D8285E08883DF91CF910895D9
:10333000CF93DF93C0E1DBE088818E7F88831982A1
:1033400018861C8280E593EC8C879D871A861B86E5
:103350001E828EE79DE10E94301D8FE79DE10E9455
:0E336000351D1D8285E08883DF91CF91089591
:10336E00E0E0FAE010A611A612A613A614A615A662
:10337E0010A211A211821282138214821582168259
:10338E00178216861186128613868FE493EC86A317
:0A339E0097A317868DE08083089541
:1033A800A0E0B0E0EAEDF9E10C94801A6C01EB01C1
:1033B8008A017B01E40EF51ECE15DF0541F08991E7
:1033C800B601082E000C990B0E94AC10F5CFC8016D
:0A33D800CDB7DEB7E8E00C94C91A87
:1033E200FC0161836683442359F080E28A95F1F7F8
:1033F20065838FEF90E00197F1F700C00000089518
:103402008FEE90E00197F1F700C00000658395E32D
:083412009A95F1F700000895FE
:10341A00CF93DF93C091D145D0E00E941A19C15CC5
:10342A00DD4B88838091D1458F5F8093D14584E0BD
:10343A00809365040E947A1C80E090E00E94121D2D
:06344A00DF91CF9108950F
:10345000EF92FF921F93CF93DF937C01162FC0E072
:10346000D0E008C0D695612FC7010E941B1B8111B7
:10347000D068CF5FC830B0F38D2FDF91CF911F910F
:06348000FF90EF9008959B
:10348600EF92FF921F93CF93DF937C01162FD42FD9
:10349600C0E008C04D2F4170612FC7010E94F1198D
:1034A600D695CF5FC830B0F3DF91CF911F91FF90D3
:0434B600EF900895F6
:1034BA00DC0140E080E012C0FD01E40FF11D208133
:1034CA0090E009C0382F3227869530FF02C03CE8C9
:1034DA00832726959F5F9830A8F34F5F461760F3BE
:0234EA00089543
:1034EC002F923F924F925F926F927F928F929F9208
:1034FC00AF92BF92CF92DF92EF92FF920F931F93F6
:10350C00CF93DF93CDB7DEB7CA1BDB0BCDBFDEBFCE
:02351C00099410
:10351E00A0E0B0E0E5E9FAE10C94861AAE014B5F4B
:10352E005F4FFA0161917191AF01E091C645F09143
:10353E00C745808191810E94A71AE2E00C94CF1AB0
:10354E00A2E0B0E0EDEAFAE10C94841A8C01498312
:10355E005A83AE014F5F5F4F0E941016F801208113
:10356E0024FF02C08FEF9FEF2296E4E00C94CD1A59
:10357E002A88398848885F846E847D848C849B84F5
:10358E00AA84B984C884DF80EE80FD800C811B8103
:10359E00AA81B981CE0FD11DCDBFDEBFED01089539
:1035AE000E948E110E945D070E94761B0E94B71921
:1035BE000E945A190E9498190E9479190E94B418F3
:0E35CE000E9443110E94F6170E94B01B089540
:1035DC000E94801C8DE09AE10E94421C82E99CE1D1
:1035EC000E94491C81E894E10E941C1D0E94861CCB
:0E35FC001092D1451092D0450E94441D0895B2
:10360A0080E4809367048091BC459091BD45019602
:10361A008093BC459093BD45EFE3F3E482839383A3
:0C362A00990F880B982F848395830895D6
:10363600FC016183668380E18A95F1F7628395E3F5
:103646009A95F1F700008085682381E009F480E00F
:0A3656009AEF9A95F1F700C008956D
:103660000E94D71A85E09BE10E94211D0E941E182E
:103670000E94441D80E48093650478940E940E0BA0
:063680000E945009FBCF7F
:103686008091D54581110BC091E09093D545E0E23C
:10369600FBE012861386958191609583089583E0F9
:0236A600089585
:1036A8008AEC9BE10E94351DE0E0F4E084E0818330
:1036B800858388E0818385830E94981C0E941C1260
:0236C800089563
:1036CA00092E0394000C11F4882352F0BB0F40F426
:1036DA00BF2B11F460FF04C06F5F7F4F8F4F9F4F66
:0236EA00089541
:1036EC00E0E4F9E080818E7F808384E3808384EC46
:1036FC00818380E090E00E94A41C10924C450895B8
:10370C008091D645823021F060E070E081E0089530
:0C371C0064E080E094E00E94AE06089596
:103728008091D645823021F060E070E081E0089514
:0C37380068E080E094E00E94AE06089576
:10374400FC01AF014F5F5F4F2081222311F0FA018A
:0C375400F8CF9F01281B390BC901089514
:1037600040E068ED80E191E00E940D1DE0E1F1E0B4
:0A37700012821382789480E008951D
:10377A00CF93C82F0E948C1C8823E1F38C2F0E94C0
:0A378A00501D80E090E0CF910895FB
:103794008091D645813019F482E08093D645E0E1EA
:0A37A400FBE085818E7F8583089588
:1037AE0082E08093D545E0E2FBE0128613868581A8
:0637BE008E7F8583089553
:1037C400EC010E94811D0E94801DCE010E94821D79
:0637D400CE010E945E1D03
:1037DA002091B6453091B74581E0232B09F480E06A
:0237EA00089540
:1037EC00EE0FFF1F0024001C0BBE0790F691E02D7E
:0237FC0009942E
:1037FE009C01215631092A31310510F48F75992714
:02380E0008951B
:1038100088E08093450485E08A95F1F700000895DB
:103820009C01215431092A31310508F48062089540
:0E383000009721F08093A6459093A745089538
:0E383E00009721F08093A4459093A54508952E
:0E384C00009721F08093A2459093A345089524
:0E385A00009721F08093B2459093B3450895F6
:0E386800009721F08093B0459093B1450895EC
:0E387600009721F08093AE459093AF450895E2
:0E388400009721F08093AA459093AB450895DC
:0E389200009721F08093AC459093AD450895CA
:0E38A00087ED9BE10E942B1D0E94431B0895A3
:0E38AE005058BB27AA270E94C80D0C94651B1A
:0E38BC000E9474166894B1110C94741C089547
:0E38CA0000240A94161617061806090608951B
:0E38D80000240A94121613061406050608951D
:0E38E600E894BB2766277727CB0197F9089552
:0C38F400E0E0FBE08081816080830895AB
:0C390000E0E0FBE080818E7F8083089572
:0C390C00E0E0FBE0858181608583089588
:0C3918008091440885FB882780F9089501
:0C3924000E94441D88E080936604089512
:0C393000E0E1FBE080818160808308956D
:0C393C0097F99F6780E870E060E0089554
:0A39480080936E4590936F4508953B
:0A39520080939645909397450895E1
:0A395C0080939445909395450895DB
:0A39660080939245909393450895D5
:0A39700080939045909391450895CF
:0A397A0080938E4590938F450895C9
:0A39840080938C4590938D450895C3
:0A398E0080938A4590938B450895BD
:0A39980080938845909389450895B7
:0A39A20080938645909387450895B1
:0A39AC0080938445909385450895AB
:0A39B60080938245909383450895A5
:0A39C000809380459093814508959F
:0A39CA0080937E4590937F45089599
:0A39D40080937C4590937D45089593
:0A39DE0080937A4590937B4508958D
:0A39E8008093784590937945089587
:0A39F2008093764590937745089581
:0A39FC00809374459093754508957B
:0A3A06008093724590937345089574
:0A3A1000809370459093714508956E
:0A3A1A001BBEFC0164BF4083089549
:0A3A240080930A0B90930B0B08959A
:0A3A2E0080939A4590939B450895FC
:0A3A380080939845909399450895F6
:0A3A420080939C4590939D450895E4
:0A3A4C008093C0459093C145089592
:0A3A56008093BE459093BF4508958C
:0A3A60008093C4459093C545089576
:0A3A6A008093C2459093C345089570
:0A3A74000E94901808F481E0089504
:0A3A7E000E94901808F48FEF0895DD
:083A880088E0809346040895D4
:083A90000E94870C0C94651BD9
:083A98000E94F60C0C94651B62
:063AA00080934208089526
:063AA6008091D545089552
:063AAC008091D64508954B
:063AB2009FEF80EC089577
:043AB8000C9400006A
:043ABC000E94B400B0
:023AC000089567
:023AC200089565
:023AC400089563
:023AC600089561
:023AC80008955F
:023ACA0008955D
:023ACC0008955B
:023ACE00089559
:023AD000089557
:023AD200089555
:023AD400089553
:023AD600089551
:023AD80008954F
:023ADA0008954D
:023ADC0008954B
:023ADE00089549
:023AE000089547
:023AE200089545
:023AE400089543
:023AE600089541
:023AE80008953F
:023AEA0008953D
:023AEC0008953B
:023AEE00089539
:023AF000089537
:023AF200089535
:023AF400089533
:023AF600089531
:023AF80008952F
:023AFA0008952D
:023AFC0008952B
:023AFE00089529
:023B0000089526
:023B0200089524
:023B0400089522
:103B060068076C094C836A9074A07AC00080688844
:063B160000846C820081B6
:103B1C00030000000000000000000000BD1B0000BE
:073B2C00286E756C6C290086
:063B3300286E696C2900F8
:023B3900C8457D
:013B3B000188
:013B3C000187
:013B3D000186
:02000004008278
:090000000000000000C00800002F
:00000001FF
