:100000000C9475000C94C6190C94C6190C94C6195E
:100010000C94C6190C94350F0C9459130C94C619F2
:100020000C94A30E0C94C6190C94C6190C94C61902
:100030000C94C6190C94C6190C94D4100C94161177
:100040000C94C6190C94C6190C94C6190C94C619B4
:100050000C9463150C94C6190C94C6190C94C6190B
:100060000C94080C0C94C6190C94C6190C94C6195F
:100070000C94C6190C94C6190C9408100C945811C1
:100080000C9467140C9492140C944A120C944C1017
:100090000C94C6190C94C6190C94E6130C94111404
:1000A0000C9411120C94C6190C94C6190C94C61910
:1000B000B80BC20BCC0BD60BE00BEA0BF40BFE0B10
:1000C0004000553B80553B55770033DA5577557FD7
:1000D00080557F558C003416558C55FA8055FA554D
:1000E000FB00342355FB55FE800011241FBECFEFCB
:1000F000CDBFDFE7DEBFE0ECF0E040E019C0B79134
:10010000A79137912791079107FD0EC0979187918D
:10011000EF01F92FE82F0BBF07900D92A217B3073D
:10012000D9F7FE011BBE04C01D92A217B307E1F769
:10013000E93EF40721F70E94100D0C947918F89409
:02014000FFCFEF
:10014200AEE0B0E0E7EAF0E00C947B174C016B0103
:1001520019821A828FEF9FEF8B839C831D821E82EE
:100162004F83588729873A87A12CB12CD6016D90ED
:100172007C90F301EA0DFB1D808181110FC0D60135
:10018200ED93FC938081853209F0D3C13F01BFEF2B
:100192006B1A7B0AF6016082718219C0853279F38B
:1001A200B401082E000C990B0E94570E4FEFA41AAF
:1001B200B40ADCCF8C32ACF08D32F9F489819A81A9
:1001C200816089839A833196D601ED93FC93D6019F
:1001D200ED91FC9180818B3269F789819A818460EB
:1001E200F0CF803221F489819A818860EACF83320C
:1001F20051F489819A818061E4CF803321F489812D
:100202009A818260DECFB701C6010E94B8138D8346
:100212009E8397FF0BC029813A81B1E02B27298366
:100222003A839195819591098D839E8389819A81E3
:1002320080FF03C08D7F89839A83D601ED91FC9163
:10024200119780818E3249F43196ED93FC93B70178
:10025200C6010E94B8138B839C83C6010E943C1680
:10026200582ED601ED91FC918081082E000C990B3D
:100272000E949F18893609F443C084F4833609F436
:1002820002C134F4853209F427C18136E1F030C16C
:100292008436B1F188360CF4D9C02AC1803709F40A
:1002A2009AC03CF48E3609F4BCC08F3609F461C0A2
:1002B2001FC1853709F440C0883709F476C08337F7
:1002C20009F016C1F3C0652D70E0A701CE010B96AF
:1002D2000E940000892B09F426C1D601ED91FC9100
:1002E2001197CF0101968D939C932081AE01455FBA
:1002F2005F4FBE016F5F7F4FC4010E94000010C1BB
:10030200652D70E0970141E050E0CE010B960E940E
:10031200790A892B09F407C1F6018081918101963E
:1003220080839183AE01455F5F4FBE016F5F7F4F58
:10033200C4010E944C08F4C0652D70E0970140E0B2
:1003420050E0CE010B960E94790A892B09F4EBC08A
:10035200D6018D919C91119701968D939C93AE013C
:10036200455F5F4FBE016F5F7F4FC4010E947C0FEC
:10037200D7C0652D70E0970140E050E0CE010B96AA
:100382000E94790A892B09F4CEC0F60180819181FD
:10039200019680839183AE01455F5F4FBE016F5F1F
:1003A2007F4FC4010E94610CBBC0652D70E09701B4
:1003B20040E050E0CE010B960E94790A892B09F4A5
:1003C200B2C0D601ED91FC911197CF0101968D93A8
:1003D2009C9320811CC0970140E050E060EF70E0E8
:1003E200CE010B960E94790A892B09F49CC0F60172
:1003F200808191810196808391838B859C85892B55
:1004020029F420E030E046E855E584C028E7AE0153
:10041200455F5F4FBE016F5F7F4FC4010E94EB03D8
:100422007FC0A501400F511F652D70E09701CE01DD
:100432000B960E940000892B09F475C0D6018D919C
:100442009C91119701968D939C9373C0652D70E0DA
:10045200A701CE010B960E940000892B09F463C00C
:10046200D601ED91FC911197CF0101968D939C934A
:100472002081AE01455F5F4FBE016F5F7F4FC401B8
:100482000E9400004DC0B0E85B124DC0F6018081B1
:100492009181019680839183D701ED91FC9111970F
:1004A200CF0102968D939C93808120C0B0E85B12AD
:1004B2003AC0F60180819181019680839183D701B0
:1004C200ED91FC911197CF0102968D939C934081FF
:1004D200518120E030E01EC0B0E85B1224C0F6017A
:1004E200208131812F5F3F4F208331838B870DC065
:1004F20085E28B87D6016D927C9219821A821D82C7
:100502001E828FEF9FEF8B839C8321E030E0AE0150
:10051200455F5F4FBE016F5F7F4FC4010E94E714CA
:100522008A0D9B1D07C0F60180819181019680830F
:0C0532009183C5012E96EFE00C94AC17ED
:10053E004F925F926F927F928F929F92AF92BF92E5
:10054E00CF92DF92EF92FF92CF93DF93CDB7DEB7CC
:10055E006097CDBFDEBF2B013C016B017C0120E813
:10056E00E21AF108C114D10420E8E2062FE7F206E0
:10057E00A0F16B017C01CC0CDD1CEE1CFF1CCD2808
:10058E00CE28CF2859F49B01AC010E94BC199B01C7
:10059E00AC0160E070E080E89FEB0FC097FF10C0E9
:1005AE0021E230E02093394130933A419B01AC0176
:1005BE000E94D81820E030E0A9010E94B819E5C0C9
:1005CE0020E030E040E05CE40E94BC192B013C01CD
:1005DE0087EE9FEF8D879E8712C06115710520E80B
:1005EE0082072FE7920708F0D0C04114510480E82B
:1005FE0068068FE3780609F4CDC01D861E869DE041
:10060E00490E9BEF591E9AE4691E711CD301C2015B
:10061E00AF77BB27BC01CD016D507B4F8A4C904C00
:10062E0020E030E040E85FE30E94D8186B017C01C7
:10063E0020E030E040E050E40E94D9189B01AC016C
:10064E00C701B6010E94B81969837A838B839C8394
:10065E009B01AC010E94BC196D837E838F839887AA
:10066E009B01AC010E94BC194B015C0120E030E003
:10067E0040E05FE3C701B6010E94BC19A7019601D5
:10068E000E94BC1969877A878B879C875524472CD3
:10069E00440C551C67FA40F8662477242FE7421A5B
:1006AE0051086D857E85640D751D072E000C880B17
:1006BE00990B0E949C112B013C0126E23EE948E772
:1006CE005EE3C501B4010E94BC1923E13EEC4CEC83
:1006DE005EE30E94D918A50194010E94BC196D8792
:1006EE007E878F87988B2EEE39EE41E95EE3C5014A
:1006FE00B4010E94BC192AEA3AEA4AE25FE30E9478
:10070E00D9182D813E814F8158850E94BC199B01BD
:10071E00AC016D857E858F8598890E94D9182985B3
:10072E003A854B855C850E94D91829813A814B8187
:10073E005C810E94BC194B015C0121ED37EF47E152
:10074E0057E3C301B2010E94BC199B01AC01C50164
:10075E00B4010E94D91829853A854B855C850E9483
:10076E00D818A70196010E94D9186B017C0120E8C8
:10077E0031E741E35FE3C301B2010E94BC199B0163
:10078E00AC01C701B6010E94D918562F472F382F3A
:10079E00292F04C050E040E030E020E0652F742F98
:1007AE00832F922F6096CDBFDEBFDF91CF91FF904A
:1007BE00EF90DF90CF90BF90AF909F908F907F90F3
:0807CE006F905F904F900895B9
:1007D600AFE0B0E0E1EFF3E00C9478171C016B0199
:1007E60049835A832B83FB01828193818480958080
:1007F60000811181A680B78097FD02C00D7F02C0DF
:1008060081E090E0E981FA814080518062807380C6
:100816009801207133272C833D83740104FF08C09F
:10082600411451046104710419F032E0E31AF1082D
:10083600F801E870FF27EE83FF8303FF03C0F1E0B2
:10084600EF1AF108F6010084F185E02D3197EE8765
:10085600FF87EA0DFB1D10829C012E193F09288790
:100866003987C801827099278A879B87EB818E2FEB
:10087600EE0F990B9C01215431092C873D872E855B
:100886003F852230310530F48C819D81892B09F01A
:1008960042C05CC0411451046104710461F18E854B
:1008A6009F8501978E879F87C2018F7099278A300F
:1008B600910514F4C09602C0895A9F4FEC85FD85B8
:1008C6007A9748F49C012062215631092A31310574
:1008D60010F40E949618EE85FF85EA0DFB1D8083B5
:1008E600F1E0EF1AF10884E0769467945794479400
:1008F6008A95D1F7C4CF888599858E0D9F1D1816C8
:1009060019066CF21E141F040CF0BECFEA85FB8597
:10091600EF2B29F6B9CFE981FA8180819181A281F5
:10092600B381892B8A2B8B2B89F0EE85FF85EA0D07
:10093600FB1D31972B8120838E859F8502978E879D
:100946009F87FC01EA0DFB1D80E38083EE81FF811A
:10095600EF2B59F02E853F85215031092E873F8791
:10096600F901EA0DFB1D80E28083F6014085518581
:10097600415051092E853F85421B530BB9016A0D23
:100986007B1D9401C1010E9483129C01F1018081AB
:10099600918190FF06C0F6018281938182179307A9
:0C09A6000CF4C9012F96E2E10C94A91793
:1009B200CF93DF9380E094E0FC011482C0E4D4E0A2
:1009C20023E02C83A0E6B4E014961C92149740EA2C
:1009D20054E0FA01248330E4FC0130833DE03883A3
:1009E2003EEF3C9331E3FA013083FC01108A118A15
:1009F200128A138A148A158A168A178A188A198AF9
:100A02001A8A1B8A1C8A1D8A1E8A1F8A50961C9269
:100A1200509751961C92519752961C925297539608
:100A22001C92539754961C92549755961C92559724
:100A320056961C92569757961C92FA01108A118A62
:100A4200128A138A148A158A168A178AE0EEF5E04A
:100A520011861182108224831682178210861582D3
:100A6200128212868AEC99E10E941F198BEC99E19D
:100A72000E9424198CEC99E10E9429198DEC99E1CC
:100A82000E942E198EEC99E10E9433198FEC99E1A4
:100A92000E94381980ED99E10E943D1981ED99E19A
:100AA2000E94421982ED99E10E94471983ED99E172
:100AB2000E944C1984ED99E10E94511985ED99E14A
:100AC2000E94561986ED99E10E945B1987ED99E122
:100AD2000E94601988ED99E10E94651989ED99E1FA
:100AE2000E946A198AED99E10E946F198BED99E1D2
:100AF2000E9474198CED99E10E9479198DED99E1AA
:0A0B02000E947E19DF91CF91089543
:100B0C000F931F93CF93DF9380913F409091404080
:100B1C0080FF8EC080E180936504C1E025C0809188
:100B2C00414090914240892BF1F08C2F90E001973D
:100B3C0021E030E0082E02C0220F331F0A94E2F7A6
:100B4C00232B89F06091FA55880F991F880F991FF4
:100B5C008C01085F1F4B8C2F0E942813F8016083B7
:100B6C00718382839383CF5FC930C8F20E94C0190E
:100B7C00823079F48091414090914240892B49F028
:100B8C00C8E2D0E40E94BA0C288339834A835B8381
:100B9C006C8381E00E946E1891E0823009F090E045
:100BAC002091414030914240232B11F081E001C053
:100BBC0080E0982349F081E00E944D076093334018
:100BCC00709334408093354082E00E946E1891E01F
:100BDC00823009F090E02091414030914240232B2B
:100BEC0011F081E001C080E0982349F082E00E947E
:100BFC004D0760933640709337408093384081E0C6
:100C0C000E946E18C82F82E00E946E1821E0C1115C
:100C1C0020E091E0811190E0922B29F00E9490103D
:100C2C0080E28093670480E1809366040E94D90778
:0A0C3C00DF91CF911F910F910895F1
:100C46008F929F92AF92BF92CF92DF92EF92FF92D6
:100C560092E0909365040E94C30F6B017C0120E033
:100C660030E040E85FE30E94A61988230CF462C0D6
:100C760020E030E040E859E3C701B6010E94BC1904
:100C860020E030E040E450E40E94BC196B017C0196
:100C960020E030E0A9010E94A61918160CF04FC0FA
:100CA60020E030E040E450E4C701B6010E94AB19F1
:100CB60088230CF049C020E030E44CE156E4C7013B
:100CC600B6010E94BC194B015C01A701960160E0C8
:100CD60070E080E490E40E94D8189B01AC01C50145
:100CE600B4010E94B81920E030E44CE156E40E94B9
:100CF600B8190E949F022CE734ED43E859E30E949D
:100D0600BC192FE03FEC4BE55BE30E94D9189B0131
:100D1600AC0160E070E080E89FE30E94B81923E32D
:100D260033E948E853E40E94D818562F472F382F46
:100D3600292F0EC050E040E030E82FEF09C050E008
:100D460040E030E82FEF04C050E040E030E82FEFFD
:100D5600652F742F832F922FFF90EF90DF90CF9007
:0A0D6600BF90AF909F908F9008950A
:100D7000AF92BF92CF92DF92EF92FF920F931F93A9
:100D8000CF93DF9300D000D0CDB7DEB75C018B01ED
:100D9000E6E6F4E080E880836894FF24F1F8F082CE
:100DA00085E08A95F1F70000CE0101960E94BC1201
:100DB000F09265048981CA80D12CE12CF12C760156
:100DC000DD24CC24F82A8B8190E0A0E0B0E0BA2F9B
:100DD000A92F982F8827C82AD92AEA2AFB2A8C818A
:100DE000C82AE0FE06C0C2FC45C0C1FC45C0C0FC2C
:100DF00045C0D701C601072E72E1B695A795979514
:100E000087957A95D1F7702DBC01FF200CF4706C9A
:100E1000072E000C880B990B0E949C1120E030E0FB
:100E200040E85EE30E94BC19F50160837183828310
:100E30009383D701C601689413F8B695A795979543
:100E400087951694D1F7BC017F70D7FC706F072E81
:100E5000000C880B990B0E949C1120E030E040E8C8
:100E60005DE30E94BC19F8016083718382839383E0
:100E700080E005C081E003C082E001C083E02496E9
:100E8000CDBFDEBFDF91CF911F910F91FF90EF900B
:0A0E9000DF90CF90BF90AF9008955F
:100E9A00CF92DF92EF92FF920F931F93CF93DF933C
:100EAA00CDB7DEB72997CDBFDEBF813011F404E09C
:100EBA0001C008E0813039F40F2EFDEFCF2EF5E5A1
:100ECA00DF2EF02D06C00F2EFCEFCF2EF5E5DF2E1C
:100EDA00F02DF6018081823021F060E070E082E03E
:100EEA0057C0602F80E094E00E948B15882331F070
:100EFA00F601108260E070E082E04AC04CEC602F9C
:100F0A0080E094E00E9445174EEB602F80E094E069
:100F1A000E94451710E00FC0E12EF12C602F80E0EF
:100F2A0094E00E942A17E1E0F0E0EC0FFD1FEE0DBD
:100F3A00FF1D80831F5F193078F368E0CE010196A8
:100F4A000E945F179985891731F0F601108260E0D7
:100F5A0070E083E01DC06A8170E0762F6627898180
:100F6A00682B072E000C880B990B0E949C1120E01D
:100F7A0030E048EC50E40E94BC190E94DF18062FAA
:100F8A00172FF60110820E949010602F712F80E0B7
:100F9A002996CDBFDEBFDF91CF911F910F91FF90B0
:080FAA00EF90DF90CF90089555
:100FB20080E090E01FC0FC017096DC01AA0FBB1F0D
:100FC200AA0FBB1FA85FBF4B2D913C911197EE0F4B
:100FD200FF1FE75CFF4B20833183FC01B096129622
:100FE2002D913C911397EE0FFF1FE75CFF4B20837F
:100FF2003183019688309105F4F2E8E0F0E480A1B3
:1010020091A18093994090939A4082A193A1809359
:101012009B4090939C4084A190E080939D4090934C
:101022009E4085A196A18093B9409093BA4087A132
:1010320090A58093BB409093BC4081A592A58093DC
:10104200BD409093BE4020E023C0822F90E0FC017F
:10105200E05BFF4FDC01AA0FBB1FA80FB91FA85FFF
:10106200BF4B9B964D915C919C97EE0FFF1FE75CE7
:10107200FF4B40835183FC01EE5AFF4F9D968C91AA
:1010820090E0EE0FFF1FE75CFF4B808391832F5FA1
:061092002230D8F208959F
:10109800A2E0B0E0E2E5F8E00C9478173C016B01BF
:1010A800FB0122813381A480B5808081918189836D
:1010B8009A8386809780FA0120803180428053800D
:1010C800B201A10157FE07C044275527BA014219AA
:1010D80053096409750937FD03C08D7F89839A8395
:1010E800950157FC05C0898182FD02C083FF02C0BB
:1010F80021503109CE0101967C010AE010E0C601B9
:101108000E94480B57FC03C0298122FF0AC001979F
:10111800F401E80FF91F57FC02C02BE209C02DE2C9
:1011280007C023FF06C00197F401E80FF91F20E26A
:10113800208309811A81F601408551854150510962
:10114800481B590BB401680F791F9501C3010E9410
:1011580083129C01F3018081918190FF06C0F60102
:1011680082819381821793070CF4C9012296E2E1E8
:041178000C94A91713
:10117C00E091D855F091D955EE0FFF1FE55CFE4A72
:10118C00108211828091410882FF12C0E091D855E3
:10119C00F091D955EE0FFF1FE55CFE4A808182600D
:1011AC008083E091D055F091D155309709F0099595
:1011BC008091410881FF0CC0E2EDF5E580818160F2
:1011CC008083E091CC55F091CD55309709F009957D
:1011DC008091410886FF12C0E091D855F091D95505
:1011EC00EE0FFF1FE55CFE4A808184608083E091F6
:1011FC00CE55F091CF55309709F0099540914008A4
:10120C008091D8559091D955019699272091D65512
:10121C003091D75582179307A1F0E091D855F091F2
:10122C00D955E55CFC4A40838093D8559093D955A9
:10123C008091D4559091D55501968093D455909327
:10124C00D555E091C855F091C955309709F00995DD
:02125C000895F3
:10125E00E091F055F091F155EE0FFF1FE55CFE4B5E
:10126E00108211828091210882FF12C0E091F05508
:10127E00F091F155EE0FFF1FE55CFE4B8081826011
:10128E008083E091E855F091E955309709F0099582
:10129E008091210881FF0CC0EAEEF5E58081816026
:1012AE008083E091E455F091E555309709F009956A
:1012BE008091210886FF12C0E091F055F091F15512
:1012CE00EE0FFF1FE55CFE4B808184608083E09112
:1012DE00E655F091E755309709F0099540912008B1
:1012EE008091F0559091F155019693702091EE55A5
:1012FE003091EF5582179307A1F0E091F055F091E0
:10130E00F155E55CF64B40838093F0559093F15583
:10131E008091EC559091ED5501968093EC559093FC
:10132E00ED55E091E055F091E155309709F00995B2
:02133E00089510
:1013400010C00E94ED1858F00E94E61840F029F4F1
:101350005F3F29F00C94141951110C94F5180C945A
:10136000C3190E94D71568F39923B1F3552391F35C
:10137000951B550BBB27AA2762177307840738F004
:101380009F5F5F4F220F331F441FAA1FA9F335D061
:101390000E2E3AF0E0E832D091505040E695001C15
:1013A000CAF72BD0FE2F29D0660F771F881FBB1FCF
:1013B000261737074807AB07B0E809F0BB0B802DAD
:1013C000BF01FF2793585F4F3AF09E3F510578F0D9
:1013D0000C9414190C94F5185F3FE4F3983ED4F381
:1013E000869577956795B795F7959F5FC9F7880FAD
:1013F000911D9695879597F90895E1E0660F771FFF
:10140000881FBB1F621773078407BA0720F0621B8F
:0E141000730B840BBA0BEE1F88F7E09508955E
:10141E000FC00E94E61838F00E94ED1820F09523B8
:10142E0011F00C9414190C94C31911240C94F51882
:10143E000E94D71570F3959FC1F3950F50E0551F7D
:10144E00629FF001729FBB27F00DB11D639FAA270B
:10145E00F00DB11DAA1F649F6627B00DA11D661F5A
:10146E00829F2227B00DA11D621F739FB00DA11D7B
:10147E00621F839FA00D611D221F749F3327A00D35
:10148E00611D231F849F600D211D822F762F6A2FD1
:10149E0011249F5750409AF0F1F088234AF0EE0F36
:1014AE00FF1FBB1F661F771F881F91505040A9F763
:1014BE009E3F510580F00C9414190C94F5185F3F63
:1014CE00E4F3983ED4F3869577956795B795F7959F
:1014DE00E7959F5FC1F7FE2B880F911D9695879517
:0414EE0097F90895CD
:1014F200CF93DF93DC01F90168387105F1F05CF4F8
:101502006138710561F164387105A1F160387105C6
:1015120009F051C02FC0603C710509F441C0603F21
:101522007105F1F1603A710509F045C0C081D181C0
:10153200CE0102968083918325C0C081D181CE01E4
:10154200029680839183452B39F04881042E000C4A
:10155200550B660B770B1CC0488150E029C0C08137
:10156200D181CE01049680839183488159816A8119
:101572007B810EC0C081D181CE010296808391838E
:10158200452BA1F048815981052E000C660B770B83
:101592004D935D936D937C93139781E090E00DC022
:1015A200C081D181CE010296808391834881598185
:1015B20060E070E0EDCF80E090E0DF91CF910895A0
:1015C20011C00E94E61838F00E94ED1820F039F49C
:1015D2009F3F19F426F40C94C3190EF4E095E7FB2F
:1015E2000C941419E92F0E94D71558F3BA17620701
:1015F20073078407950720F079F4A6F50C94F41884
:101602000EF4E0950B2EBA2FA02D0B01B90190011B
:101612000C01CA01A0011124FF27591B99F0593F5F
:1016220050F4503E68F11A16F040A22F232F342FA7
:101632004427585FF3CF469537952795A795F040F5
:101642005395C9F77EF41F16BA0B620B730B840B0A
:10165200BAF09150A1F0FF0FBB1F661F771F881FC2
:10166200C2F70EC0BA0F621F731F841F48F487951A
:1016720077956795B795F7959E3F08F0B0CF93950C
:0E168200880F08F09927EE0F97958795089529
:10169000A0E0B0E0EEE4FBE00C947A17DC01280156
:1016A0001696AD90BC901797F701808191811296A4
:1016B000ED91FC9113971896CD91DC911997219794
:1016C000F7FF02C0E1E0F0E0CA0DDB1D18826901FE
:1016D000A1E0B0E08F01021B130B4C01F2E08F225E
:1016E0009924052C000C66087708CE018A199B09FD
:1016F000CA15DB0519F1411551056105710589F020
:10170000CB01BA01A30192010E94F915CA01A62FCB
:10171000B72F605D6A9341E0C41AD108A901BC01EA
:10172000E4CF98012C0D3D1D121613064CF31C142A
:101730001D0434F48114910419F702C080E090E094
:10174000AB2B31F4F701208131812F7E208331834F
:0A175000CDB7DEB7E0E10C94AB1753
:10175A0090E0FC013197E830F10508F053C0E85AEF
:10176A00FF4F0C948D1884E080934604E6EAF4E077
:10177A0080E2808380E18083089584E08093450439
:10178A00E6EAF4E080E2808380E18083089584E0E1
:10179A008093460480E28093A50480E18093A604A6
:1017AA00089584E08093450480E28093A50480E153
:1017BA008093A604089584E08093460480E280938F
:1017CA00A60480E18093A504089584E080934504EB
:1017DA0080E28093A60480E18093A504089584E0C2
:1017EA0080934604E5EAF4E080E2808380E1808326
:1017FA00089584E080934504E5EAF4E080E280837A
:06180A0080E180830895D7
:101810001F920F920FB60F9211240BB60F922F93B7
:101820003F934F935F936F937F938F939F93AF9368
:10183000BF93EF93FF93799B05C0E0919E55F09184
:101840009F5509957A9B05C0E0919C55F0919D5557
:1018500009957B9B05C0E0919A55F0919B550995A0
:101860007C9B05C0E0919855F091995509957D9B19
:1018700005C0E0919655F091975509957E9B05C05E
:10188000E0919455F091955509957F9B05C0E091A5
:101890009255F091935509958FEF8FB9FF91EF9184
:1018A000BF91AF919F918F917F916F915F914F9178
:1018B0003F912F910F900BBE0F900FBE0F901F9076
:0218C000189579
:1018C200A2E0B0E0E7E6FCE00C947C174C016B016F
:1018D200FB012281338164807580808191818983BB
:1018E2009A83A680B78037FD03C08D7F89839A8350
:1018F200FA014081518162817381CE0101967C019E
:1019020008E010E09301C6010E94480B298124FFE0
:1019120006C00197F501E80FF91F20E32083298112
:1019220023FF06C00197F501E80FF91F20E220838B
:1019320009811A81F6014085518541505109481BA0
:10194200590BB501680F791F9301C4010E948312DC
:101952009C01F4018081918190FF06C0F601828191
:101962009381821793070CF4C9012296EEE00C943E
:02197200AD17AF
:101974001F93CF93DF93CDB7DEB76297CDBFDEBFA2
:10198400BE01615F7F4FCE010B960E94B806182FEF
:10199400882379F08A871E821F821886198685E03B
:1019A400FE013696DE01119601900D928A95E1F7BB
:1019B40026C06B857C858D859E8520E030E048ECD3
:1019C40052E40E94BC190E94DF186E837F836F85E6
:1019D400788989899A8920E030E048EC52E40E94B1
:1019E400BC190E94DF18688779871A8785E0FE0191
:1019F4003696DE01119601900D928A95E1F72981C0
:101A04003A814B815C816D8170E080E090E0629668
:0C1A1400CDBFDEBFDF91CF911F91089580
:101A2000CF93DF93CDB7DEB7DA95CDBFDEBF0E948F
:101A3000C11778940E9402190E9408190E940E1979
:101A40000E94D8170E94B419FE01319680E091E0FF
:101A5000DF019C011D9221503040E1F780E480932A
:101A600065040E948605E9E3F0E46091DD40709131
:101A7000DE404091D9405091DA4022A533A580A59F
:101A800091A57F936F935F934F933F932F939F9372
:101A90008F938BE395E59F938F938E010F5F1F4F7D
:101AA0001F930F930E940418C8010E940F173FEF65
:101AB00089E698E1315080409040E1F700C0000095
:061AC000CDBFDEBFCECF5A
:101AC600E0E4F9E0248183818068838380917B55FB
:101AD60090917C55892B49F180917D55813829F06B
:101AE600E0917955F0917A552083E7E7F5E5808115
:101AF600918101968083918382819381019682836D
:101B060093838681882331F0E0917755F09178555B
:101B1600208101C020E0E7E7F5E584819581019702
:101B26008483958320934409089580917D55813857
:101B360049F080917E55823429F4E0917955F091EF
:101B46007A55208381E880937E55E0E4F9E082812E
:101B56008F778283E0918C55F0918D55309709F0FF
:041B66000995089540
:101B6A00CF93DF938EEB98E08093024090930340EB
:101B7A0081E195E18093004090930140C0E4D8E070
:101B8A008AE09AE18887998780ED8D8380EC8E833D
:101B9A0083E08F831B861C861E861D8684EE99E150
:101BAA000E94A71885EE99E10E94AE1886EE99E187
:101BBA000E94B5181092D2551092D3551092DE5544
:101BCA001092DF551092DC551092DD5580E091E0BD
:101BDA008093DA559093DB5581E08093F855109203
:101BEA00D8551092D9551092D6551092D7551092B1
:101BFA00D4551092D5558D8180688D83DF91CF9110
:021C0A0008953B
:101C0C00CF93DF938FE299E0809306409093074047
:101C1C008DEB94E18093044090930540C0E2D8E0B2
:101C2C008AE09AE18887998780ED8D8380EC8E839A
:101C3C0083E08F831B861C861E861D8687EE99E1AA
:101C4C000E94BC1888EE99E10E94C31889EE99E1B4
:101C5C000E94CA181092EA551092EB551092F65544
:101C6C001092F7551092F4551092F55580E094E0CF
:101C7C008093F2559093F35581E08093F95510922F
:101C8C00F0551092F1551092EE551092EF551092AE
:101C9C00EC551092ED558D8180688D83DF91CF913D
:021CAC00089599
:101CAE000F931F93CF93DF93DB01109719F48FEFF0
:101CBE009FEF3DC02D913C91119730FF25C0169698
:101CCE004D915C91179714962D913C911597421753
:101CDE00530778F41296ED91FC9113978083129628
:101CEE002D913C9113972F5F3F4F12962D933C935E
:101CFE00139716962D913C9117972F5F3F4F16967F
:101D0E002D933C93179713C01C96ED91FC911D9744
:101D1E00309769F2EB01092F182F0995892B39F6A7
:101D2E008E819F8101968E839F83812F902FDF91CD
:081D3E00CF911F910F91089550
:101D46001F920F920FB60F9211240BB60F922F937C
:101D56003F934F935F936F937F938F939F93AF932D
:101D6600BF93EF93FF931A9B05C0E091AC55F0919A
:101D7600AD5509951B9B05C0E091AA55F091AB5551
:101D860009951D9B05C0E091A855F091A9550995A7
:101D96001F9B05C0E091A655F091A75509951E9B7E
:101DA60005C0E091A455F091A55509958FEF83B92B
:101DB600FF91EF91BF91AF919F918F917F916F911D
:101DC6005F914F913F912F910F900BBE0F900FBED9
:061DD6000F901F9018950C
:101DDC0043E068ED80E690E00E94831940E068EDF6
:101DEC0081E690E00E94831940E068ED88E790E07E
:101DFC000E9483194CE168ED88E690E00E948319FB
:101E0C0040E068ED89E690E00E94831940E468EDBB
:101E1C0080E790E00E94831940E068ED8CE790E049
:101E2C000E94831944E068ED82E690E00E948319D9
:101E3C0040E068ED83E690E00E94831940E068ED95
:101E4C0084E690E00E94831945E168ED80E890E01B
:0E1E5C000E9483198091650084FFFCCF0895D9
:101E6A001F920F920FB60F9211240BB60F922F9357
:101E7A003F934F935F936F937F938F939F93AF9308
:101E8A00BF93EF93FF938091420180FF0BC0809133
:101E9A00430180FF07C0E091BE55F091BF553097CE
:101EAA0009F009958091420181FF0BC0809143019D
:101EBA0081FF07C0E091BC55F091BD55309709F0FC
:101ECA00099583E080934301FF91EF91BF91AF9110
:101EDA009F918F917F916F915F914F913F912F9138
:0E1EEA000F900BBE0F900FBE0F901F9018951B
:101EF800A2E0B0E0E2E8FFE00C947C175C016B0123
:101F0800FB0122813381848095808081918189833E
:101F18009A836680778037FD03C08D7F89839A8393
:101F2800FA014081518162817381CE0101967C0161
:101F38000AE010E09401C6010E94480B09811A8149
:101F4800F6014085518541505109481B590BB30191
:101F5800680F791F9401C5010E9483129C01F50145
:101F68008081918190FF06C0F6018281938182175A
:0E1F780093070CF4C9012296EEE00C94AD170D
:101F8600CF92DF92EF92FF921F93CF93DF93662358
:101F960061F1D62F182FC0E0C12CD12C76010CC0D0
:101FA600812F0E943A15C80ED91EE11CF11C85E34B
:101FB6008A95F1F70000CF5FCD1790F3C701B60100
:101FC6000E949A116B017C016D2F70E080E090E019
:101FD6000E949A119B01AC01C701B6010E94B81973
:101FE600562F472F382F292F04C050E040E030E00D
:101FF60020E0652F742F832F922FDF91CF911F91B1
:0A200600FF90EF90DF90CF90089557
:102010001F920F920FB60F9211240BB60F922F93AF
:102020003F934F935F936F937F938F939F93AF9360
:10203000BF93EF93FF93599B05C0E091B455F09186
:10204000B5550995589B05C0E091B255F091B3552F
:1020500009955A9B05C0E091A255F091A3550995A9
:102060005B9B05C0E091A055F091A15509958FEFBC
:102070008BB9FF91EF91BF91AF919F918F917F911C
:102080006F915F914F913F912F910F900BBE0F90E9
:082090000FBE0F901F90189580
:102098001F920F920FB60F9211240BB60F922F9327
:1020A8003F934F935F936F937F938F939F93AF93D8
:1020B800BF93EF93FF93B99B05C0E091B055F091A2
:1020C800B1550995B89B05C0E091AE55F091AF5553
:1020D8000995BC9B05C0E0919055F09191550995E3
:1020E800BD9B05C0E0918E55F0918F5509958FEFF6
:1020F80087BBFF91EF91BF91AF919F918F917F9196
:102108006F915F914F913F912F910F900BBE0F9060
:082118000FBE0F901F901895F7
:102120008091FD55811116C064E080E094E00E942A
:102130008B1581110FC04CEC64E080E094E00E94AC
:10214000451744E464E080E094E00E94451781E094
:102150008093FD558091FC55811116C068E080E0A8
:1021600094E00E948B1581110FC04CEC68E080E078
:1021700094E00E94451744E468E080E094E00E9407
:10218000451781E08093FC558091FD55813021F009
:102190008091FC55813039F4E0E1FBE01286138632
:0821A0008581816085830895AB
:1021A8001F920F920FB60F9211240BB60F922F9316
:1021B8003F934F935F936F937F938F939F93AF93C7
:1021C800BF93EF93FF938091060B80FF0AC0E091C5
:1021D800B655F091B755309709F0099581E080938D
:1021E800060B8091060B81FF0AC0E091B855F0916B
:1021F800B955309709F0099582E08093060BFF9155
:10220800EF91BF91AF919F918F917F916F915F9166
:102218004F913F912F910F900BBE0F900FBE0F90D3
:042228001F90189556
:10222C001F920F920FB60F9211240BB60F922F9391
:10223C003F934F935F936F937F938F939F93AF9342
:10224C00BF93EF93FF938091160B80FF0AC0E09130
:10225C00C055F091C155309709F0099581E08093F4
:10226C00160B8091160B81FF0AC0E091C255F091BC
:10227C00C355309709F0099582E08093160BFF91B6
:10228C00EF91BF91AF919F918F917F916F915F91E2
:10229C004F913F912F910F900BBE0F900FBE0F904F
:0422AC001F901895D2
:1022B0001F920F920FB60F9211240BB60F922F930D
:1022C0003F934F935F936F937F938F939F93AF93BE
:1022D000BF93EF93FF938091260B80FF0AC0E0919C
:1022E000C455F091C555309709F0099581E0809368
:1022F000260B8091260B81FF0AC0E091C655F09114
:10230000C755309709F0099582E08093260BFF911D
:10231000EF91BF91AF919F918F917F916F915F915D
:102320004F913F912F910F900BBE0F900FBE0F90CA
:042330001F9018954D
:10233400E89409C097FB3EF490958095709561955B
:102344007F4F8F4F9F4F9923A9F0F92F96E9BB2711
:102354009395F695879577956795B795F111F8CF8D
:10236400FAF4BB0F11F460FF1BC06F5F7F4F8F4FF8
:102374009F4F16C0882311F096E911C0772321F0EE
:102384009EE8872F762F05C0662371F096E8862F86
:1023940070E060E02AF09A95660F771F881FDAF7DD
:0A23A400880F9695879597F9089524
:1023AE00A0E1B0E0EDEDF1E10C948417FB01BA0170
:1023BE00AE014F5F5F4F7A0140E1D7011D924A9502
:1023CE00E9F742E051E049835A838B839C83F7FF00
:1023DE0009C08FE490E08093394190933A418FEF9A
:1023EE009FEF14C0A9018C013197ED83FE83C701C5
:1023FE000E9491174F8158852D813E8142175307B8
:10240E0008F49A01F801E20FF31F10826096E6E0DD
:04241E000C94B5174E
:102422001F920F920FB60F9211240BB60F922F9399
:102432003F934F935F936F937F938F939F93AF934A
:10244200BF93EF93FF938091440886FB882780F91E
:102452008093F855E091CA55F091CB55309709F029
:102462000995E0E4F8E0848180648483FF91EF9130
:10247200BF91AF919F918F917F916F915F914F919A
:102482003F912F910F900BBE0F900FBE0F901F9098
:0224920018959B
:102494001F920F920FB60F9211240BB60F922F9327
:1024A4003F934F935F936F937F938F939F93AF93D8
:1024B400BF93EF93FF938091240886FB882780F9CC
:1024C4008093F955E091E255F091E355309709F086
:1024D4000995E0E2F8E0848180648483FF91EF91C0
:1024E400BF91AF919F918F917F916F915F914F9128
:1024F4003F912F910F900BBE0F900FBE0F901F9026
:02250400189528
:10250600A0E0B0E0E9E8F2E10C947E176C015B0113
:102516007A01E901480181E08822992400FD03C07F
:102526004217530750F0A701B501C6010E94D616FF
:10253600EC16FD0610F0C70117C08E010E191F0913
:102546000115110541F0B60180E290E00E94570E98
:1025560001501109F5CF8114910429F4A701B501A1
:10256600C6010E94D616CE01CDB7DEB7ECE00C94BC
:02257600AF179D
:10257800CF92DF92EF92FF92FC012FE130E0C12C65
:10258800D12C760122C090E49093050485E08A95C9
:10259800F1F70000159B10C041E050E060E070E0EA
:1025A800022E04C0440F551F661F771F0A94D2F7E6
:1025B800C42AD52AE62AF72A90E49093060485E0EF
:1025C8008A95F1F70000215031093323E4F6F082AF
:1025D800E182D282C382FF90EF90DF90CF9008957E
:1025E800A2E8B0E0EAEFF2E10C947E175C014A0140
:1025F80069837A83C12CD12CE981FA81808188236F
:10260800E9F07401860120E830E0AE014D5F5F4FCC
:10261800BE016F5F7F4FC5010E94A1008C0D9D1DFB
:102628008C159D054CF48FE490E08093394190938C
:102638003A418FEF9FEF03C06C01DECFC601CE5742
:08264800DF4FECE00C94AF172A
:102650008F929F92AF92BF92CF92DF92EF92FF92B2
:102660000E9423066B017C012FEF3FEF4FE75FEFE6
:102670000E94A619882324F4812C912C5401A39440
:10268000C701B6010E94DF18660F771FCB01880FC4
:10269000991F880F991F4B01880E991EC501B4011F
:1026A000FF90EF90DF90CF90BF90AF909F908F9072
:0226B00008958B
:1026B2001F920F920FB60F9211240BB60F922F9307
:1026C2003F934F935F936F937F938F939F93AF93B8
:1026D200BF93EF93FF93E091BA55F091BB553097BA
:1026E20009F0099581E080935301FF91EF91BF9129
:1026F200AF919F918F917F916F915F914F913F9198
:102702002F910F900BBE0F900FBE0F901F90189538
:102712000E94DF1588F09F5798F0B92F9927B7517B
:10272200B0F0E1F0660F771F881F991F1AF0BA9573
:10273200C9F714C0B13091F00E94F418B1E00895C5
:102742000C94F418672F782F8827B85F39F0B93FB7
:10275200CCF3869577956795B395D9F73EF4909526
:0E2762008095709561957F4F8F4F9F4F089522
:10277000DC01ED91FC91119780818A3221F080E09B
:1027800090E03AE00EC03196ED93FC93DB01ED91C1
:10279000FC911197CF0102968D939C93808191813A
:1027A0000895ED91FC911197208120532A3068F40F
:1027B000389FA001399F500D1124CA01820F911D2D
:0C27C0003196ED93FC931197ECCF089537
:1027CC001F920F920FB60F9211240BB60F922F93EC
:1027DC003F934F935F936F937F938F939F93AF939D
:1027EC00BF93EF93FF93E0910240F0910340099562
:1027FC00FF91EF91BF91AF919F918F917F916F91CD
:10280C005F914F913F912F910F900BBE0F900FBE88
:06281C000F901F901895BB
:102822001F920F920FB60F9211240BB60F922F9395
:102832003F934F935F936F937F938F939F93AF9346
:10284200BF93EF93FF93E0910040F091014009950F
:10285200FF91EF91BF91AF919F918F917F916F9176
:102862005F914F913F912F910F900BBE0F900FBE32
:062872000F901F90189565
:102878002091F2553091F355232BF9F0E091F6555C
:10288800F091F755E55CF24B80838091F655909175
:10289800F755019693708093F6559093F755E0E2BB
:1028A800F8E085818F7D85838091F2559091F3556D
:1028B80001978093F2559093F355E0E2F8E0858113
:0628C80080628583089583
:1028CE001F920F920FB60F9211240BB60F922F93E9
:1028DE003F934F935F936F937F938F939F93AF939A
:1028EE00BF93EF93FF93E0910640F0910740099557
:1028FE00FF91EF91BF91AF919F918F917F916F91CA
:10290E005F914F913F912F910F900BBE0F900FBE85
:06291E000F901F901895B8
:102924001F920F920FB60F9211240BB60F922F9392
:102934003F934F935F936F937F938F939F93AF9343
:10294400BF93EF93FF93E0910440F0910540099504
:10295400FF91EF91BF91AF919F918F917F916F9173
:102964005F914F913F912F910F900BBE0F900FBE2F
:062974000F901F90189562
:10297A008091F2559091F35581159440E8F4E091D5
:10298A00F455F091F555E55CF24B8081809322086D
:10299A008091F4559091F555019693708093F45572
:1029AA009093F5558091F2559091F3550196809345
:1029BA00F2559093F3550895E0E2F8E085818F7D12
:0429CA008583089564
:1029CE00A0E0B0E0EDEEF4E10C9480177C01FB0189
:1029DE00EA01C901A280B380C480D5800081118133
:1029EE00209711F4CFE7D5E5009719F4CE010E9498
:1029FE004818B7FC04C0A816B90608F4C50196011C
:102A0E00AC01BE01C7010E948312CDB7DEB7EAE06A
:042A1E000C94B1174C
:102A22008091DA559091DB5591111DC0E091DC55F2
:102A3200F091DD55E55CFB4A8081809342088091EC
:102A4200DC559091DD55019699278093DC55909342
:102A5200DD558091DA559091DB5501968093DA55D8
:102A62009093DB550895E0E4F8E085818F7D8583BE
:022A72000895C5
:102A74000E94AD0B80E8809365043AE03A95F1F743
:102A840000C020E080E090E013C030E430930504FF
:102A94003AE03A95F1F700C0880F991F15998160C3
:102AA40030E4309306043AE03A95F1F700C02F5F22
:102AB400203158F320E820936604969587959F70FB
:022AC400089573
:102AC6001F920F920FB60F9211240BB60F922F93EF
:102AD6003F934F935F936F937F938F939F93AF93A0
:102AE600BF93EF93FF930E94630DFF91EF91BF9108
:102AF600AF919F918F917F916F915F914F913F9190
:102B06002F910F900BBE0F900FBE0F901F90189530
:102B1600FC01618366838FE797E00197F1F700C0B8
:102B26000000628387E191E00197F1F700C00000A1
:102B36008085862341F087E696E00197F1F700C08D
:102B4600000081E0089587E696E00197F1F700C05E
:102B560000008085682311F080E0089582E00895E2
:102B6600990F0008550FAA0BE0E8FEEF1616170698
:102B7600E807F907C0F012161306E407F50798F000
:102B8600621B730B840B950B39F40A2661F0232B19
:102B9600242B252B21F408950A2609F4A140A69595
:082BA6008FEF811D811D0895D0
:102BAE0057FD9058440F551F59F05F3F71F04795F0
:102BBE00880F97FB991F61F09F3F79F087950895D5
:102BCE00121613061406551FF2CF4695F1DF08C0F4
:102BDE00161617061806991FF1CF86957105610511
:042BEE0008940895AA
:102BF200A1E21A2EAA1BBB1BFD010DC0AA1FBB1FFF
:102C0200EE1FFF1FA217B307E407F50720F0A21B70
:102C1200B30BE40BF50B661F771F881F991F1A94DD
:102C220069F760957095809590959B01AC01BD0107
:042C3200CF01089531
:102C3600809141018111FCCFE0E4F1E08FEF9FE745
:102C460084879587108611868FEF9FEF82879387FB
:102C560017821282158281E0808380915101811151
:102C6600FCCFE0E4F1E0128A158A81E7808B80E0F0
:022C76000895BF
:102C7800CF93DF93EC0190E0E92FF0E0EE0FFF1F18
:102C8800EF59FA4A8081811102C081810EC0A88162
:102C9800B9812C91821305C091811196A883B983BB
:102CA80001C09F5F9B3040F3892FDF91CF9108953A
:102CB800CF93DF93C0E0DBE088818E7F8883198221
:102CC80018861C8280E09AEF8C879D871A861B865F
:102CD8001E828EED99E10E9488198FED99E10E947C
:0E2CE8008D191D8281E08883DF91CF910895C0
:102CF600CF93DF93C0E1DBE088818E7F88831982E2
:102D060018861C8280E593EC8C879D871A861B8625
:102D16001E8280EE99E10E94921981EE99E10E944D
:0E2D260097191D8285E08883DF91CF91089573
:102D3400CF93DF93C0E2DBE088818E7F88831982A2
:102D440018861C828AE698E18C879D871A861B86E2
:102D54001E8282EE99E10E949C1983EE99E10E9401
:0E2D6400A1191D8285E08883DF91CF9108952B
:102D7200E0E0FAE010A611A612A613A614A615A664
:102D820010A211A21182128213821482158216825B
:102D9200178216861186128613868DE390E086A32B
:0A2DA20097A317868DE08083089543
:102DAC00A0E0B0E0ECEDF6E10C9482176C01EB01C5
:102DBC008A017B01E40EF51ECE15DF0541F08991E9
:102DCC00B601082E000C990B0E94570EF5CFC801C6
:0A2DDC00CDB7DEB7E8E00C94B317A2
:102DE600FC0161836683442359F080E28A95F1F7FA
:102DF60065838FEF90E00197F1F700C0000008951A
:102E06008FEE90E00197F1F700C00000658395E32F
:082E16009A95F1F70000089500
:102E1E000F931F93CF93DF93EC010E94B0190BC059
:102E2E000E9484188823E1F38E010F5F1F4F888163
:102E3E000E943C14E80188818111F2CFDF91CF917D
:062E4E001F910F91089591
:102E5400EF92FF921F93CF93DF937C01162FC0E074
:102E6400D0E008C0D695612FC7010E94EF178111E9
:102E7400D068CF5FC830B0F38D2FDF91CF911F9111
:062E8400FF90EF9008959D
:102E8A00EF92FF921F93CF93DF937C01162FD42FDB
:102E9A00C0E008C04D2F4170612FC7010E94F31690
:102EAA00D695CF5FC830B0F3DF91CF911F91FF90D5
:042EBA00EF900895F8
:102EBE00DC0140E080E012C0FD01E40FF11D208135
:102ECE0090E009C0382F3227869530FF02C03CE8CB
:102EDE00832726959F5F9830A8F34F5F461760F3C0
:022EEE00089545
:102EF0002F923F924F925F926F927F928F929F920A
:102F0000AF92BF92CF92DF92EF92FF920F931F93F7
:102F1000CF93DF93CDB7DEB7CA1BDB0BCDBFDEBFD0
:022F2000099412
:102F2200A2E0B0E0E7E9F7E10C9486178C0149834F
:102F32005A83AE014F5F5F4F0E94F412F801208165
:102F420024FF02C08FEF9FEF2296E4E00C94B717A4
:102F52002A88398848885F846E847D848C849B8427
:102F6200AA84B984C884DF80EE80FD800C811B8135
:102F7200AA81B981CE0FD11DCDBFDEBFED0108956B
:102F82000E94EE0E0E94D9040E9438180E94B916BF
:102F92000E945C160E947B160E949A160E941B16C3
:0E2FA2000E94060E0E94B50D0E94561808955A
:102FB000E9E3F0E484E690E08083918382E090E0AE
:102FC0008283938383E090E08483958386839783D1
:0E2FD00080E394E0808791870E94D1180895D5
:102FDE00FC016183668380E18A95F1F7628395E354
:102FEE009A95F1F700008085682381E009F480E06E
:0A2FFE009AEF9A95F1F700C00895CC
:10300800A0E0B0E0EAE0F8E10C948817AE01475F71
:103018005F4F6F8178858D819E810E94FB18E2E069
:043028000C94B91734
:10302C008091FB5581110BC091E09093FB55E0E230
:10303C00FBE012861386958191609583089583E059
:02304C000895E5
:10304E00092E0394000C11F4882352F0BB0F40F4A8
:10305E00BF2B11F460FF04C06F5F7F4F8F4F9F4FE8
:02306E000895C3
:10307000E0E4F9E080818E7F808384E3808384ECC8
:10308000818380E090E00E941A1910927E55089585
:10309000FC01AF014F5F5F4F2081222311F0FA0145
:0C30A000F8CF9F01281B390BC9010895CF
:1030AC0040E068ED80E191E00E948319E0E1F1E0FD
:0A30BC0012821382789480E00895D8
:1030C60082E08093FB55E0E2FBE012861386858161
:0630D6008E7F8583089542
:1030DC00813019F48091FD550895823019F4809156
:0630EC00FC550895089553
:1030F200EC010E94EB190E94EA19CE010E94EC1920
:06310200CE010E94C81975
:103108002091F2553091F35581E0232B09F480E0AA
:02311800089518
:10311A00EE0FFF1F0024001C0BBE0790F691E02D56
:02312A00099406
:10312C009C01215631092A31310510F48F759927EC
:02313C000895F4
:10313E009C01215431092A31310508F48062089529
:0E314E00009721F08093D0559093D1550895AD
:0E315C00009721F08093CE559093CF550895A3
:0E316A00009721F08093CC559093CD55089599
:0E317800009721F08093E8559093E955089553
:0E318600009721F08093E6559093E755089549
:0E319400009721F08093E4559093E55508953F
:0E31A20083E698E10E94A1190E941618089574
:0E31B0005058BB27AA270E94E10A0C9427184A
:0E31BE000E9489136894B1110C94F5180895BD
:0E31CC0000240A941616170618060906089520
:0E31DA0000240A941216130614060506089522
:0E31E800E894BB2766277727CB0197F9089557
:0E31F6009A01AB016FEF7FE70E94D711089599
:0C320400E0E0FBE080818E7F8083089575
:0C321000E0E1FBE0808181608083089594
:0C321C00E0E2FBE080818E7F808308955B
:0C32280097F99F6780E870E060E008956F
:0A32340080938C5590938D550895FA
:0A323E008093B4559093B5550895A0
:0A3248008093B2559093B35508959A
:0A3252008093B0559093B155089594
:0A325C008093AE559093AF5508958E
:0A3266008093AC559093AD55089588
:0A3270008093AA559093AB55089582
:0A327A008093A8559093A95508957C
:0A3284008093A6559093A755089576
:0A328E008093A4559093A555089570
:0A3298008093A2559093A35508956A
:0A32A2008093A0559093A155089564
:0A32AC0080939E5590939F5508955E
:0A32B60080939C5590939D55089558
:0A32C00080939A5590939B55089552
:0A32CA00809398559093995508954C
:0A32D4008093965590939755089546
:0A32DE008093945590939555089540
:0A32E800809392559093935508953A
:0A32F2008093905590939155089534
:0A32FC0080938E5590938F5508952E
:0A3306001BBEFC0164BF4083089564
:0A3310008093B8559093B9550895C5
:0A331A008093B6559093B7550895BF
:0A3324008093C2559093C35508959D
:0A332E008093C0559093C155089597
:0A3338008093C6559093C755089581
:0A3342008093C4559093C55508957B
:0A334C000E94B31508F481E0089513
:0A3356000E94B31508F48FEF0895EC
:0833600088E080934504089504
:0833680088E0809346040895FB
:083370000E94A0090C9427182B
:083378000E940F0A0C942718B3
:063380008091FB55089549
:063386009FEF80EC0895AA
:04338C000C9400009D
:043390000E949F00F8
:0233940008959A
:02339600089598
:02339800089596
:02339A00089594
:02339C00089592
:02339E00089590
:0233A00008958E
:0233A20008958C
:0233A40008958A
:0233A600089588
:0233A800089586
:0233AA00089584
:0233AC00089582
:0233AE00089580
:0233B00008957E
:0233B20008957C
:0233B40008957A
:0233B600089578
:0233B800089576
:0233BA00089574
:0233BC00089572
:0233BE00089570
:0233C00008956E
:0233C20008956C
:0233C40008956A
:0233C600089568
:0233C800089566
:0233CA00089564
:0233CC00089562
:0233CE00089560
:0233D00008955E
:0233D20008955C
:0233D40008955A
:0233D600089558
:0233D800089556
:1033DA004E5443353A2025640A4E5443363A202542
:1033EA00640A4453313A202564204552524F523AD6
:0633FA002025640A0A0010
:1034000068076C094C836A9074A07AC00080688851
:0634100000846C820081C3
:07341600286E756C6C2900A3
:06341D00286E696C290015
:013423000A9E
:02000004008278
:090000000000000000C00800002F
:00000001FF
