:100000000C9467000C940E080C940E080C940E08C7
:100010000C940E080C940E080C940E080C940E0808
:100020000C94B3020C9410050C940E080C940E085A
:100030000C940E080C940E080C9411040C945304A8
:100040000C940E080C940E080C940E080C940E08D8
:100050000C940E080C940E080C940E080C940E08C8
:100060000C945A020C940E080C940E080C940E0872
:100070000C940E080C940E080C9445030C949504F3
:100080000C9440050C946B050C94D7040C948903D4
:100090000C940E080C940E080C940E080C940E0888
:1000A0000C940E080C940E080C940E080C940E0878
:1000B0004000430480430443140010644314437C11
:1000C00080437C437E001074437E438A8000112469
:1000D0001FBECFEFCDBFDFE7DEBFE0EBF0E040E0DB
:1000E00019C0B791A79137912791079107FD0EC0CD
:1000F00097918791EF01F92FE82F0BBF07900D9291
:10010000A217B307D9F7FE011BBE04C01D92A217A8
:10011000B307E1F7ED3CF40721F70E94C7060C9402
:060120001007F894FFCF68
:100126000F931F93CF93DF9380918743882309F41E
:10013600AFC080918843883028F41092884310928B
:100146008743A6C080E180936704C09188436EEF21
:100156006C0F84E092E40E948006AC019091044208
:100166009230B1F42C2F30E0F901EE5FFD4B808127
:1001760090E0BA0177278617970751F4F901ED5FEA
:10018600FD4B808190E0452F55278417950729F070
:1001960010928843109287437BC08091054283303A
:1001A60009F072C0E4E0F2E4828190E0982F88279B
:1001B6002381822BBC01C481D0E0DC2FCC27258192
:1001C600C22BAE018C0F9D1F8138910508F05CC0D3
:1001D600E4E0F1E482E0808383E081831C2F110F49
:1001E600128380E090E01BC0DC01AA0FBB1FFC015C
:1001F600E60FF71FEE0FFF1FEC5FFF4B20813181EB
:10020600A95FBE4B3C939C012E5F3F4F220F331FCD
:10021600A081B181F901EC5FFE4BA08301968417A2
:10022600950710F363E0610F84E091E40E94800675
:100236008E01000F111FF801E95FFE4B8083FE015E
:100246003296EE0FFF1FEC5FFE4B90830E94FA077B
:10025600C0E00CC00E943A078823E1F3EC2FF0E0DF
:10026600EC5FFE4B80810E942406CF5F8C2F90E0CE
:1002760098012B5F3F4F8217930760F30E94F507A3
:100286008823E1F30E94FE07109288431092874369
:0A029600DF91CF911F910F910895A1
:1002A000CF93DF9380E094E0FC011482C0E4D4E0BB
:1002B0001C82A0E6B4E014961C92149740EA54E025
:1002C000FA01148220E4FC0120832DE028832EEF24
:1002D0002C9321E3FA012083FC01108A118A128AEF
:1002E000138A148A158A168A178A188A198A1A8A0A
:1002F0001B8A1C8A1D8A1E8A1F8A50961C92509740
:1003000051961C92519752961C92529753961C925A
:10031000539754961C92549755961C9255975696FF
:100320001C92569757961C92FA01108A118A128ACB
:10033000138A148A158A168A178AE0EEF5E0118668
:100340001182108283E084831682178210861582C0
:100350001282128682E198E00E946E0783E198E0A3
:100360000E94730784E198E00E94780785E198E095
:100370000E947D0786E198E00E94820787E198E06D
:100380000E94870788E198E00E948C0789E198E045
:100390000E9491078AE198E00E9496078BE198E01D
:1003A0000E949B078CE198E00E94A0078DE198E0F5
:1003B0000E94A5078EE198E00E94AA078FE198E0CD
:1003C0000E94AF0780E298E00E94B40781E298E0C3
:1003D0000E94B90782E298E00E94BE0783E298E09B
:1003E0000E94C30784E298E00E94C80785E298E073
:0A03F0000E94CD07DF91CF91089520
:1003FA00E0918243F0E0EE0FFF1FEC5EFC4B1082AF
:10040A0011828091210882FF11C0E0918243F0E0BD
:10041A00EE0FFF1FEC5EFC4B808182608083E091CF
:10042A007843F0917943309709F009958091210832
:10043A0081FF0CC0EAE7F3E4808181608083E09168
:10044A007443F0917543309709F00995809121081A
:10045A0086FF11C0E0918243F0E0EE0FFF1FEC5ED1
:10046A00FC4B808184608083E0917643F0917743EE
:10047A00309709F0099580912008909182439F5FF7
:10048A00977020918143921769F0E0918243F0E0DE
:10049A00EC5DFC4B808390938243909180439F5FF5
:0A04AA00909380430E94B30608956A
:1004B4001F920F920FB60F9211240BB60F922F9327
:1004C4003F934F935F936F937F938F939F93AF93D8
:1004D400BF93EF93FF93799B05C0E0914443F09160
:1004E400454309957A9B05C0E0914243F09143430B
:1004F40009957B9B05C0E0914043F09141430995E8
:100504007C9B05C0E0913E43F0913F4309957D9B60
:1005140005C0E0913C43F0913D4309957E9B05C0A5
:10052400E0913A43F0913B4309957F9B05C0E091EC
:100534003843F091394309958FEF8FB9FF91EF91CB
:10054400BF91AF919F918F917F916F915F914F91E7
:100554003F912F910F900BBE0F900FBE0F901F90E5
:020564001895E8
:100566001F920F920FB60F9211240BB60F922F9374
:100576003F934F935F936F937F938F939F93AF9325
:10058600BF93EF93FF931A9B05C0E0915243F091FE
:10059600534309951B9B05C0E0915043F09151438D
:1005A60009951D9B05C0E0914E43F0914F43099577
:1005B6001F9B05C0E0914C43F0914D4309951E9B4E
:1005C60005C0E0914A43F0914B4309958FEF83B9FB
:1005D600FF91EF91BF91AF919F918F917F916F9115
:1005E6005F914F913F912F910F900BBE0F900FBED1
:0605F6000F901F90189504
:1005FC0043E068ED80E690E00E94D20740E068EDB1
:10060C0081E690E00E94D20740E068ED88E790E038
:10061C000E94D2074CE168ED88E690E00E94D20778
:10062C0040E068ED89E690E00E94D20740E468ED76
:10063C0080E790E00E94D20740E068ED8CE790E004
:10064C000E94D20744E068ED82E690E00E94D20757
:10065C0040E068ED83E690E00E94D20740E068ED50
:10066C0084E690E00E94D20745E168ED80E890E0D6
:0E067C000E94D2078091650084FFFCCF089594
:10068A001F920F920FB60F9211240BB60F922F934F
:10069A003F934F935F936F937F938F939F93AF9300
:1006AA00BF93EF93FF93599B05C0E0915A43F09192
:1006BA005B430995589B05C0E0915843F091594313
:1006CA0009955A9B05C0E0914843F0914943099521
:1006DA005B9B05C0E0914643F091474309958FEF34
:1006EA008BB9FF91EF91BF91AF919F918F917F91BC
:1006FA006F915F914F913F912F910F900BBE0F9089
:08070A000FBE0F901F9018951F
:100712001F920F920FB60F9211240BB60F922F93C6
:100722003F934F935F936F937F938F939F93AF9377
:10073200BF93EF93FF93B99B05C0E0915643F091AD
:1007420057430995B89B05C0E0915443F091554336
:100752000995BC9B05C0E0913643F091374309955A
:10076200BD9B05C0E0913443F091354309958FEF6D
:1007720087BBFF91EF91BF91AF919F918F917F9135
:100782006F915F914F913F912F910F900BBE0F9000
:080792000FBE0F901F90189597
:10079A00CF93DF938DEF91E08093024090930340D3
:1007AA0082E696E08093004090930140C0E2D8E050
:1007BA008AE09AE18887998780ED8D8380EC8E8321
:1007CA0083E08F831B861C861E861D868CE298E03A
:1007DA000E9441078DE298E00E9448078EE298E065
:1007EA000E944F0710927A4310927B4310928643DD
:1007FA001092854388E08093844381E08093834309
:10080A001092824310928143109280438D818068B6
:08081A008D83DF91CF91089559
:100822001F920F920FB60F9211240BB60F922F93B5
:100832003F934F935F936F937F938F939F93AF9366
:10084200BF93EF93FF938091060B80FF0AC0E09164
:100852005E43F0915F43309709F0099581E0809300
:10086200060B8091060B81FF0AC0E0916043F09174
:100872006143309709F0099582E08093060BFF915E
:10088200EF91BF91AF919F918F917F916F915F9106
:100892004F913F912F910F900BBE0F900FBE0F9073
:0408A2001F901895F6
:1008A6001F920F920FB60F9211240BB60F922F9331
:1008B6003F934F935F936F937F938F939F93AF93E2
:1008C600BF93EF93FF938091160B80FF0AC0E091D0
:1008D6006243F0916343309709F0099581E0809374
:1008E600160B8091160B81FF0AC0E0916443F091CC
:1008F6006543309709F0099582E08093160BFF91C6
:10090600EF91BF91AF919F918F917F916F915F9181
:100916004F913F912F910F900BBE0F900FBE0F90EE
:040926001F90189571
:10092A001F920F920FB60F9211240BB60F922F93AC
:10093A003F934F935F936F937F938F939F93AF935D
:10094A00BF93EF93FF938091260B80FF0AC0E0913B
:10095A006643F0916743309709F0099581E08093E7
:10096A00260B8091260B81FF0AC0E0916843F09123
:10097A006943309709F0099582E08093260BFF912D
:10098A00EF91BF91AF919F918F917F916F915F91FD
:10099A004F913F912F910F900BBE0F900FBE0F906A
:0409AA001F901895ED
:1009AE001F920F920FB60F9211240BB60F922F9328
:1009BE003F934F935F936F937F938F939F93AF93D9
:1009CE00BF93EF93FF938091240886FB882780F9CD
:1009DE0080938343E0917243F0917343309709F013
:1009EE000995E0E2F8E0848180648483FF91EF91C1
:1009FE00BF91AF919F918F917F916F915F914F9129
:100A0E003F912F910F900BBE0F900FBE0F901F9026
:020A1E00189529
:100A20001F920F920FB60F9211240BB60F922F93B5
:100A30003F934F935F936F937F938F939F93AF9366
:100A4000BF93EF93FF93E0915C43F0915D43309748
:100A500009F0099581E080930B0AFF91EF91BF9116
:100A6000AF919F918F917F916F915F914F913F9146
:100A70002F910F900BBE0F900FBE0F901F901895E7
:100A80001F920F920FB60F9211240BB60F922F9355
:100A90003F934F935F936F937F938F939F93AF9306
:100AA000BF93EF93FF93E0910240F09103400995CB
:100AB000FF91EF91BF91AF919F918F917F916F9136
:100AC0005F914F913F912F910F900BBE0F900FBEF2
:060AD0000F901F90189525
:100AD6001F920F920FB60F9211240BB60F922F93FF
:100AE6003F934F935F936F937F938F939F93AF93B0
:100AF600BF93EF93FF93E0910040F0910140099579
:100B0600FF91EF91BF91AF919F918F917F916F91DF
:100B16005F914F913F912F910F900BBE0F900FBE9B
:060B26000F901F901895CE
:100B2C00E0E4F8E08AE09AE180879187158280EC16
:100B3C00868383E08783138614861686158689E25E
:100B4C0098E00E9425078AE298E00E942C078BE22D
:100B5C0098E00E9433071092704310927143E09119
:100B6C007C43F0917D4384E093E4808391830895EA
:100B7C001F93CF93DF93C0E0DBE088818E7F888367
:100B8C0011E0198318861C828AEF90E08C879D8770
:100B9C001A861B861E8286E298E00E94D70782E0A6
:100BAC0098E00E94DC071D8385E08883DF91CF915C
:040BBC001F910895E8
:100BC0001F93CF93DF93C0E1DBE088818E7F888322
:100BD00011E0198318861C828BE197EB8C879D8727
:100BE0001A861B861E8287E298E00E94E10785E054
:100BF00098E00E94E6071D8385E08883DF91CF910E
:040C00001F910895A3
:100C04001F93CF93DF93C0E2DBE088818E7F8883DC
:100C140011E0198318861C828AE698E18C879D87E7
:100C24001A861B861E8288E298E00E94EB0788E001
:100C340098E00E94F0071D8385E08883DF91CF91BF
:040C44001F9108955F
:100C4800909184439923B1F0E0918643F0E0E45D0C
:100C5800FC4B8083809186438F5F877080938643A7
:100C6800E0E2F8E085818F7D85838091844381501F
:100C780080938443E0E2F8E085818062858308956B
:100C8800E0E0FAE010A611A612A613A614A615A66F
:100C980010A211A211821282138214821582168266
:100CA80017821686118681E0828713868AE197EB80
:0C0CB80086A397A317868DE08083089523
:100CC400809184438830A0F4E0918543F0E0E45DB2
:100CD400FC4B808180932208809185438F5F8770CD
:100CE40080938543809184438F5F809384430895E8
:0C0CF400E0E2F8E085818F7D85830895A3
:100D0000AC0130E08FEF9FEF16C0FA01E30FF11D49
:100D10002081822720E00CC080FF07C09695879530
:100D200071E0872770EA972702C0969587952F5F15
:0C0D3000283090F33F5F361740F3089521
:100D3C000E94FE020E9450010E941B070E94440662
:100D4C000E94BE050E94E0050E9402060E94CD038F
:0A0D5C000E9496050E94EB06089520
:100D660090E290936504E091884391E09E0F909302
:100D76008843F0E0EC5FFD4B808310920A0B1092E3
:080D86000B0B0E9456070895B3
:100D8E000E949E060E94DA0680E4809365040E940B
:100D9E0093002FEF80E792E0215080409040E1F7E2
:060DAE0000C00000F4CFBC
:100DB400E4E0F0E484E690E08083918382E090E0D4
:100DC4008283938323E030E024833583868397836F
:020DD400089580
:100DD60040E068ED80E191E00E94D207E0E1F1E0B9
:0A0DE60012821382789480E00895D1
:100DF000CF93C82F0E9462078823E1F38C2F0E94B3
:0A0E00000B0880E090E0CF91089508
:100E0A0082E080938943E0E2FBE0128613868581C3
:060E1A008E7F8583089520
:100E2000EC010E9430080E942F08CE010E94310878
:060E3000CE010E94100833
:100E3600E0E4F9E080818E7F808384E3808384EC24
:040E46008183089507
:0E0E4A00009721F080936E4390936F430895BC
:0E0E5800009721F080936C4390936D430895B2
:0E0E6600009721F080936A4390936B430895A8
:0E0E74009091844381E0911101C080E00895C7
:0E0E8200009721F08093784390937943089570
:0E0E9000009721F08093764390937743089566
:0E0E9E00009721F0809374439093754308955C
:0C0EAC00E0E0FBE0858181608583089513
:0C0EB800E0E0FBE085818E7F85830895DB
:0C0EC4008091440885FB882780F9089580
:0C0ED00081E0809387430E945C07089536
:0A0EDC0080935A4390935B430895FE
:0A0EE60080935843909359430895F8
:0A0EF00080935643909357430895F2
:0A0EFA0080935443909355430895EC
:0A0F040080935243909353430895E5
:0A0F0E0080935043909351430895DF
:0A0F180080934E4390934F430895D9
:0A0F220080934C4390934D430895D3
:0A0F2C0080934A4390934B430895CD
:0A0F360080934843909349430895C7
:0A0F400080934643909347430895C1
:0A0F4A0080934443909345430895BB
:0A0F540080934243909343430895B5
:0A0F5E0080934043909341430895AF
:0A0F680080933E4390933F430895A9
:0A0F720080933C4390933D430895A3
:0A0F7C0080933A4390933B4308959D
:0A0F86008093384390933943089597
:0A0F90008093364390933743089591
:0A0F9A00809334439093354308958B
:0A0FA4001BBEFC0164BF40830895EA
:0A0FAE00809360439093614308951F
:0A0FB80080935E4390935F43089519
:0A0FC2008093644390936543089503
:0A0FCC0080936243909363430895FD
:0A0FD60080936843909369430895E7
:0A0FE00080936643909367430895E1
:0A0FEA008091834310928343089521
:080FF40088E080934504089594
:080FFC0088E08093460408958B
:061004000E946807089538
:06100A000E940507089595
:061010000E94050708958F
:06101600809342080895DA
:04101C000C94000030
:041020000E94910099
:0210240008952D
:0210260008952B
:02102800089529
:02102A00089527
:02102C00089525
:02102E00089523
:02103000089521
:0210320008951F
:0210340008951D
:0210360008951B
:02103800089519
:02103A00089517
:02103C00089515
:02103E00089513
:02104000089511
:0210420008950F
:0210440008950D
:0210460008950B
:02104800089509
:02104A00089507
:02104C00089505
:02104E00089503
:02105000089501
:021052000895FF
:021054000895FD
:021056000895FB
:021058000895F9
:02105A000895F7
:02105C000895F5
:02105E000895F3
:021060000895F1
:021062000895EF
:10106400030000000000000000000000F80600007B
:021074007E43B9
:02000004008278
:090000000000000000C00800002F
:00000001FF
